{
  "address": "0x3E63878Eb67a128e40a21c32e83E407800F45107",
  "abi": [
    {
      "constant": true,
      "inputs": [],
      "name": "hasInitialized",
      "outputs": [
        {
          "name": "",
          "type": "bool"
        }
      ],
      "payable": false,
      "stateMutability": "view",
      "type": "function"
    },
    {
      "constant": true,
      "inputs": [
        {
          "name": "_script",
          "type": "bytes"
        }
      ],
      "name": "getEVMScriptExecutor",
      "outputs": [
        {
          "name": "",
          "type": "address"
        }
      ],
      "payable": false,
      "stateMutability": "view",
      "type": "function"
    },
    {
      "constant": true,
      "inputs": [],
      "name": "POINT_ROOTNODE_ROLE",
      "outputs": [
        {
          "name": "",
          "type": "bytes32"
        }
      ],
      "payable": false,
      "stateMutability": "view",
      "type": "function"
    },
    {
      "constant": true,
      "inputs": [],
      "name": "getRecoveryVault",
      "outputs": [
        {
          "name": "",
          "type": "address"
        }
      ],
      "payable": false,
      "stateMutability": "view",
      "type": "function"
    },
    {
      "constant": true,
      "inputs": [],
      "name": "ens",
      "outputs": [
        {
          "name": "",
          "type": "address"
        }
      ],
      "payable": false,
      "stateMutability": "view",
      "type": "function"
    },
    {
      "constant": false,
      "inputs": [
        {
          "name": "_label",
          "type": "bytes32"
        },
        {
          "name": "_target",
          "type": "address"
        }
      ],
      "name": "createNameAndPoint",
      "outputs": [
        {
          "name": "node",
          "type": "bytes32"
        }
      ],
      "payable": false,
      "stateMutability": "nonpayable",
      "type": "function"
    },
    {
      "constant": false,
      "inputs": [
        {
          "name": "_label",
          "type": "bytes32"
        },
        {
          "name": "_owner",
          "type": "address"
        }
      ],
      "name": "createName",
      "outputs": [
        {
          "name": "node",
          "type": "bytes32"
        }
      ],
      "payable": false,
      "stateMutability": "nonpayable",
      "type": "function"
    },
    {
      "constant": true,
      "inputs": [
        {
          "name": "token",
          "type": "address"
        }
      ],
      "name": "allowRecoverability",
      "outputs": [
        {
          "name": "",
          "type": "bool"
        }
      ],
      "payable": false,
      "stateMutability": "view",
      "type": "function"
    },
    {
      "constant": true,
      "inputs": [],
      "name": "appId",
      "outputs": [
        {
          "name": "",
          "type": "bytes32"
        }
      ],
      "payable": false,
      "stateMutability": "view",
      "type": "function"
    },
    {
      "constant": true,
      "inputs": [],
      "name": "getInitializationBlock",
      "outputs": [
        {
          "name": "",
          "type": "uint256"
        }
      ],
      "payable": false,
      "stateMutability": "view",
      "type": "function"
    },
    {
      "constant": false,
      "inputs": [
        {
          "name": "_token",
          "type": "address"
        }
      ],
      "name": "transferToVault",
      "outputs": [],
      "payable": false,
      "stateMutability": "nonpayable",
      "type": "function"
    },
    {
      "constant": true,
      "inputs": [
        {
          "name": "_sender",
          "type": "address"
        },
        {
          "name": "_role",
          "type": "bytes32"
        },
        {
          "name": "_params",
          "type": "uint256[]"
        }
      ],
      "name": "canPerform",
      "outputs": [
        {
          "name": "",
          "type": "bool"
        }
      ],
      "payable": false,
      "stateMutability": "view",
      "type": "function"
    },
    {
      "constant": true,
      "inputs": [],
      "name": "getEVMScriptRegistry",
      "outputs": [
        {
          "name": "",
          "type": "address"
        }
      ],
      "payable": false,
      "stateMutability": "view",
      "type": "function"
    },
    {
      "constant": true,
      "inputs": [],
      "name": "DELETE_NAME_ROLE",
      "outputs": [
        {
          "name": "",
          "type": "bytes32"
        }
      ],
      "payable": false,
      "stateMutability": "view",
      "type": "function"
    },
    {
      "constant": false,
      "inputs": [
        {
          "name": "_ens",
          "type": "address"
        },
        {
          "name": "_rootNode",
          "type": "bytes32"
        }
      ],
      "name": "initialize",
      "outputs": [],
      "payable": false,
      "stateMutability": "nonpayable",
      "type": "function"
    },
    {
      "constant": true,
      "inputs": [],
      "name": "kernel",
      "outputs": [
        {
          "name": "",
          "type": "address"
        }
      ],
      "payable": false,
      "stateMutability": "view",
      "type": "function"
    },
    {
      "constant": false,
      "inputs": [
        {
          "name": "_target",
          "type": "address"
        }
      ],
      "name": "pointRootNode",
      "outputs": [],
      "payable": false,
      "stateMutability": "nonpayable",
      "type": "function"
    },
    {
      "constant": false,
      "inputs": [
        {
          "name": "_label",
          "type": "bytes32"
        }
      ],
      "name": "deleteName",
      "outputs": [],
      "payable": false,
      "stateMutability": "nonpayable",
      "type": "function"
    },
    {
      "constant": true,
      "inputs": [],
      "name": "isPetrified",
      "outputs": [
        {
          "name": "",
          "type": "bool"
        }
      ],
      "payable": false,
      "stateMutability": "view",
      "type": "function"
    },
    {
      "constant": true,
      "inputs": [],
      "name": "rootNode",
      "outputs": [
        {
          "name": "",
          "type": "bytes32"
        }
      ],
      "payable": false,
      "stateMutability": "view",
      "type": "function"
    },
    {
      "constant": true,
      "inputs": [],
      "name": "CREATE_NAME_ROLE",
      "outputs": [
        {
          "name": "",
          "type": "bytes32"
        }
      ],
      "payable": false,
      "stateMutability": "view",
      "type": "function"
    },
    {
      "anonymous": false,
      "inputs": [
        {
          "indexed": true,
          "name": "node",
          "type": "bytes32"
        },
        {
          "indexed": true,
          "name": "label",
          "type": "bytes32"
        }
      ],
      "name": "NewName",
      "type": "event"
    },
    {
      "anonymous": false,
      "inputs": [
        {
          "indexed": true,
          "name": "node",
          "type": "bytes32"
        },
        {
          "indexed": true,
          "name": "label",
          "type": "bytes32"
        }
      ],
      "name": "DeleteName",
      "type": "event"
    },
    {
      "anonymous": false,
      "inputs": [
        {
          "indexed": true,
          "name": "executor",
          "type": "address"
        },
        {
          "indexed": false,
          "name": "script",
          "type": "bytes"
        },
        {
          "indexed": false,
          "name": "input",
          "type": "bytes"
        },
        {
          "indexed": false,
          "name": "returnData",
          "type": "bytes"
        }
      ],
      "name": "ScriptResult",
      "type": "event"
    },
    {
      "anonymous": false,
      "inputs": [
        {
          "indexed": true,
          "name": "vault",
          "type": "address"
        },
        {
          "indexed": true,
          "name": "token",
          "type": "address"
        },
        {
          "indexed": false,
          "name": "amount",
          "type": "uint256"
        }
      ],
      "name": "RecoverToVault",
      "type": "event"
    }
  ],
  "transactionHash": "0x8b176acf53d8ba805069750d91e68b761a215c941904c331e45c6cbd1e012bbd",
  "args": [],
  "solcInputHash": "635d22341e808aa0fa87d204ded34dfa",
  "bytecode": "0x6080604052620000176401000000006200001d810204565b6200023b565b6200003064010000000062000125810204565b60408051808201909152601881527f494e49545f414c52454144595f494e495449414c495a45440000000000000000602082015290156200010c576040517f08c379a00000000000000000000000000000000000000000000000000000000081526004018080602001828103825283818151815260200191508051906020019080838360005b83811015620000d0578181015183820152602001620000b6565b50505050905090810190601f168015620000fe5780820380516001836020036101000a031916815260200191505b509250505060405180910390fd5b506200012360001964010000000062000154810204565b565b60006200014f6000805160206200223483398151915264010000000062001a326200023382021704565b905090565b6200016764010000000062000125810204565b60408051808201909152601881527f494e49545f414c52454144595f494e495449414c495a454400000000000000006020820152901562000206576040517f08c379a000000000000000000000000000000000000000000000000000000000815260040180806020018281038252838181518152602001915080519060200190808383600083811015620000d0578181015183820152602001620000b6565b5062000230600080516020620022348339815191528264010000000062001fb96200023782021704565b50565b5490565b9055565b611fe9806200024b6000396000f30060806040526004361061011c5763ffffffff7c01000000000000000000000000000000000000000000000000000000006000350416630803fac081146101215780632914b9bd1461014a578063307482cf146101cc57806332f0a3b5146101f35780633f15457f1461020857806365b0bc851461021d5780636b62cb1b1461024e5780637e7db6e11461027f57806380afdea8146102ad5780638b3dd749146102c25780639d4941d8146102d7578063a1658fad14610307578063a479e5081461037b578063bdbf7d4c14610390578063be13f47c146103a5578063d4aae0c4146103d6578063db606931146103eb578063dc371e5414610419578063de4796ed14610431578063faff50a814610446578063fef47e381461045b575b600080fd5b34801561012d57600080fd5b50610136610470565b604080519115158252519081900360200190f35b34801561015657600080fd5b506040805160206004803580820135601f81018490048402850184019095528484526101a39436949293602493928401919081908401838280828437509497506104999650505050505050565b6040805173ffffffffffffffffffffffffffffffffffffffff9092168252519081900360200190f35b3480156101d857600080fd5b506101e16105a5565b60408051918252519081900360200190f35b3480156101ff57600080fd5b506101a36105c9565b34801561021457600080fd5b506101a3610667565b34801561022957600080fd5b506101e160043573ffffffffffffffffffffffffffffffffffffffff60243516610683565b34801561025a57600080fd5b506101e160043573ffffffffffffffffffffffffffffffffffffffff602435166107bc565b34801561028b57600080fd5b5061013673ffffffffffffffffffffffffffffffffffffffff600435166108ac565b3480156102b957600080fd5b506101e16108b2565b3480156102ce57600080fd5b506101e16108e2565b3480156102e357600080fd5b5061030573ffffffffffffffffffffffffffffffffffffffff6004351661090d565b005b34801561031357600080fd5b50604080516020600460443581810135838102808601850190965280855261013695833573ffffffffffffffffffffffffffffffffffffffff16956024803596369695606495939492019291829185019084908082843750949750610c2f9650505050505050565b34801561038757600080fd5b506101a3610dbf565b34801561039c57600080fd5b506101e1610e81565b3480156103b157600080fd5b5061030573ffffffffffffffffffffffffffffffffffffffff60043516602435610ea5565b3480156103e257600080fd5b506101a36110f0565b3480156103f757600080fd5b5061030573ffffffffffffffffffffffffffffffffffffffff6004351661111b565b34801561042557600080fd5b50610305600435611209565b34801561043d57600080fd5b50610136611651565b34801561045257600080fd5b506101e1611682565b34801561046757600080fd5b506101e1611688565b60008061047b6108e2565b905080158015906104935750806104906116ac565b10155b91505090565b60006104a3610dbf565b73ffffffffffffffffffffffffffffffffffffffff166304bf2a7f836040518263ffffffff167c01000000000000000000000000000000000000000000000000000000000281526004018080602001828103825283818151815260200191508051906020019080838360005b8381101561052757818101518382015260200161050f565b50505050905090810190601f1680156105545780820380516001836020036101000a031916815260200191505b5092505050602060405180830381600087803b15801561057357600080fd5b505af1158015610587573d6000803e3d6000fd5b505050506040513d602081101561059d57600080fd5b505192915050565b7f9ecd0e7bddb2e241c41b595a436c4ea4fd33c9fa0caa8056acf084fc3aa3bfbe81565b60006105d36110f0565b73ffffffffffffffffffffffffffffffffffffffff166332f0a3b56040518163ffffffff167c0100000000000000000000000000000000000000000000000000000000028152600401602060405180830381600087803b15801561063657600080fd5b505af115801561064a573d6000803e3d6000fd5b505050506040513d602081101561066057600080fd5b5051905090565b60005473ffffffffffffffffffffffffffffffffffffffff1681565b604080516000808252602082019092527ff86bc2abe0919ab91ef714b2bec7c148d94f61fdb069b91a6cfe9ecdee1799ba906106c59033908390855b50610c2f565b60408051808201909152600f81527f4150505f415554485f4641494c45440000000000000000000000000000000000602082015290151561079e576040517f08c379a00000000000000000000000000000000000000000000000000000000081526004018080602001828103825283818151815260200191508051906020019080838360005b8381101561076357818101518382015260200161074b565b50505050905090810190601f1680156107905780820380516001836020036101000a031916815260200191505b509250505060405180910390fd5b506107a984306116b0565b91506107b582846118df565b5092915050565b604080516000808252602082019092527ff86bc2abe0919ab91ef714b2bec7c148d94f61fdb069b91a6cfe9ecdee1799ba906107fc9033908390856106bf565b60408051808201909152600f81527f4150505f415554485f4641494c454400000000000000000000000000000000006020820152901515610899576040517f08c379a00000000000000000000000000000000000000000000000000000000081526004018080602001828103825283818151815260200191508051906020019080838360008381101561076357818101518382015260200161074b565b506108a484846116b0565b949350505050565b50600190565b60006108dd7fd625496217aa6a3453eecb9c3489dc5a53e6c67b444329ea2b2cbc9ff547639b611a32565b905090565b60006108dd7febb05b386a8d34882b8711d156f463690983dc47815980fb82aeeff1aa43579e611a32565b600080600061091b846108ac565b60408051808201909152601281527f5245434f5645525f444953414c4c4f574544000000000000000000000000000060208201529015156109b8576040517f08c379a00000000000000000000000000000000000000000000000000000000081526004018080602001828103825283818151815260200191508051906020019080838360008381101561076357818101518382015260200161074b565b506109c16105c9565b92506109cc83611a3a565b60408051808201909152601a81527f5245434f5645525f5641554c545f4e4f545f434f4e54524143540000000000006020820152901515610a69576040517f08c379a00000000000000000000000000000000000000000000000000000000081526004018080602001828103825283818151815260200191508051906020019080838360008381101561076357818101518382015260200161074b565b5073ffffffffffffffffffffffffffffffffffffffff84161515610ad4576040513031925073ffffffffffffffffffffffffffffffffffffffff84169083156108fc029084906000818181858888f19350505050158015610ace573d6000803e3d6000fd5b50610bc4565b5082610afc73ffffffffffffffffffffffffffffffffffffffff82163063ffffffff611a7416565b9150610b2573ffffffffffffffffffffffffffffffffffffffff8216848463ffffffff611bad16565b60408051808201909152601d81527f5245434f5645525f544f4b454e5f5452414e534645525f4641494c45440000006020820152901515610bc2576040517f08c379a00000000000000000000000000000000000000000000000000000000081526004018080602001828103825283818151815260200191508051906020019080838360008381101561076357818101518382015260200161074b565b505b8373ffffffffffffffffffffffffffffffffffffffff168373ffffffffffffffffffffffffffffffffffffffff167f596caf56044b55fb8c4ca640089bbc2b63cae3e978b851f5745cbb7c5b288e02846040518082815260200191505060405180910390a350505050565b600080610c3a610470565b1515610c495760009150610db7565b610c516110f0565b905073ffffffffffffffffffffffffffffffffffffffff81161515610c795760009150610db7565b8073ffffffffffffffffffffffffffffffffffffffff1663fdef9106863087610ca188611c45565b6040517c010000000000000000000000000000000000000000000000000000000063ffffffff871602815273ffffffffffffffffffffffffffffffffffffffff808616600483019081529085166024830152604482018490526080606483019081528351608484015283519192909160a490910190602085019080838360005b83811015610d39578181015183820152602001610d21565b50505050905090810190601f168015610d665780820380516001836020036101000a031916815260200191505b5095505050505050602060405180830381600087803b158015610d8857600080fd5b505af1158015610d9c573d6000803e3d6000fd5b505050506040513d6020811015610db257600080fd5b505191505b509392505050565b600080610dca6110f0565b604080517fbe00bbd80000000000000000000000000000000000000000000000000000000081527fd6f028ca0e8edb4a8c9757ca4fdccab25fa1e0317da1188108f7d2dee14902fb60048201527fddbcfd564f642ab5627cf68b9b7d374fb4f8a36e941a75d89c87998cef03bd616024820152905173ffffffffffffffffffffffffffffffffffffffff929092169163be00bbd8916044808201926020929091908290030181600087803b15801561057357600080fd5b7f03d74c8724218ad4a99859bcb2d846d39999449fd18013dd8d69096627e6862281565b610ead6108e2565b60408051808201909152601881527f494e49545f414c52454144595f494e495449414c495a4544000000000000000060208201529015610f49576040517f08c379a00000000000000000000000000000000000000000000000000000000081526004018080602001828103825283818151815260200191508051906020019080838360008381101561076357818101518382015260200161074b565b50610f52611c4f565b604080517f02571be3000000000000000000000000000000000000000000000000000000008152600481018390529051309173ffffffffffffffffffffffffffffffffffffffff8516916302571be3916024808201926020929091908290030181600087803b158015610fc457600080fd5b505af1158015610fd8573d6000803e3d6000fd5b505050506040513d6020811015610fee57600080fd5b505160408051808201909152601881527f454e535355425f4e4f5f4e4f44455f4f574e455253484950000000000000000060208201529173ffffffffffffffffffffffffffffffffffffffff909116146110a4576040517f08c379a00000000000000000000000000000000000000000000000000000000081526004018080602001828103825283818151815260200191508051906020019080838360008381101561076357818101518382015260200161074b565b50600080547fffffffffffffffffffffffff00000000000000000000000000000000000000001673ffffffffffffffffffffffffffffffffffffffff9390931692909217909155600155565b60006108dd7f4172f0f7d2289153072b0a6ca36959e0cbe2efc3afe50fc81636caa96338137b611a32565b604080516000808252602082019092527f9ecd0e7bddb2e241c41b595a436c4ea4fd33c9fa0caa8056acf084fc3aa3bfbe9161115b9133918491906106bf565b60408051808201909152600f81527f4150505f415554485f4641494c4544000000000000000000000000000000000060208201529015156111f8576040517f08c379a00000000000000000000000000000000000000000000000000000000081526004018080602001828103825283818151815260200191508051906020019080838360008381101561076357818101518382015260200161074b565b50611205600154836118df565b5050565b6040805160008082526020820190925281907f03d74c8724218ad4a99859bcb2d846d39999449fd18013dd8d69096627e686229061124b9033908390856106bf565b60408051808201909152600f81527f4150505f415554485f4641494c4544000000000000000000000000000000000060208201529015156112e8576040517f08c379a00000000000000000000000000000000000000000000000000000000081526004018080602001828103825283818151815260200191508051906020019080838360008381101561076357818101518382015260200161074b565b506112f284611d2e565b60008054604080517f02571be300000000000000000000000000000000000000000000000000000000815260048101859052905193965073ffffffffffffffffffffffffffffffffffffffff909116926302571be392602480840193602093929083900390910190829087803b15801561136b57600080fd5b505af115801561137f573d6000803e3d6000fd5b505050506040513d602081101561139557600080fd5b505160408051808201909152601381527f454e535355425f444f45534e545f455849535400000000000000000000000000602082015290925073ffffffffffffffffffffffffffffffffffffffff8316151561144d576040517f08c379a00000000000000000000000000000000000000000000000000000000081526004018080602001828103825283818151815260200191508051906020019080838360008381101561076357818101518382015260200161074b565b5073ffffffffffffffffffffffffffffffffffffffff821630146115025760008054600154604080517f06ab59230000000000000000000000000000000000000000000000000000000081526004810192909252602482018890523060448301525173ffffffffffffffffffffffffffffffffffffffff909216926306ab59239260648084019382900301818387803b1580156114e957600080fd5b505af11580156114fd573d6000803e3d6000fd5b505050505b60008054604080517f1896f70a0000000000000000000000000000000000000000000000000000000081526004810187905260248101849052905173ffffffffffffffffffffffffffffffffffffffff90921692631896f70a9260448084019382900301818387803b15801561157757600080fd5b505af115801561158b573d6000803e3d6000fd5b505060008054604080517f5b0fc9c30000000000000000000000000000000000000000000000000000000081526004810189905260248101849052905173ffffffffffffffffffffffffffffffffffffffff9092169450635b0fc9c39350604480820193929182900301818387803b15801561160657600080fd5b505af115801561161a573d6000803e3d6000fd5b50506040518692508591507f49a4cd9bb38e10e402c44a680c5e13f710666ed683cb9cbbc131f7dc9f8b9d6090600090a350505050565b60007fffffffffffffffffffffffffffffffffffffffffffffffffffffffffffffffff61167c6108e2565b14905090565b60015481565b7ff86bc2abe0919ab91ef714b2bec7c148d94f61fdb069b91a6cfe9ecdee1799ba81565b4390565b60006116bb83611d2e565b60008054604080517f02571be3000000000000000000000000000000000000000000000000000000008152600481018590529051939450919273ffffffffffffffffffffffffffffffffffffffff909116916302571be391602480830192602092919082900301818787803b15801561173357600080fd5b505af1158015611747573d6000803e3d6000fd5b505050506040513d602081101561175d57600080fd5b505160408051808201909152601281527f454e535355425f4e414d455f455849535453000000000000000000000000000060208201529173ffffffffffffffffffffffffffffffffffffffff90911614611813576040517f08c379a00000000000000000000000000000000000000000000000000000000081526004018080602001828103825283818151815260200191508051906020019080838360008381101561076357818101518382015260200161074b565b5060008054600154604080517f06ab592300000000000000000000000000000000000000000000000000000000815260048101929092526024820187905273ffffffffffffffffffffffffffffffffffffffff868116604484015290519216926306ab59239260648084019382900301818387803b15801561189457600080fd5b505af11580156118a8573d6000803e3d6000fd5b50506040518592508391507f8f858576a6066f5ecb4d2f49d40fac9db317ff8d5f7610d58b616b657d7044cf90600090a392915050565b600061190a7ffdd5d5de6dd63db72bbc2d487944ba13bf775b50a80805fe6fcaba9b0fba88f5611df5565b60008054604080517f1896f70a0000000000000000000000000000000000000000000000000000000081526004810188905273ffffffffffffffffffffffffffffffffffffffff80861660248301529151949550911692631896f70a9260448084019391929182900301818387803b15801561198557600080fd5b505af1158015611999573d6000803e3d6000fd5b5050604080517fd5fa2b000000000000000000000000000000000000000000000000000000000081526004810187905273ffffffffffffffffffffffffffffffffffffffff86811660248301529151918516935063d5fa2b00925060448082019260009290919082900301818387803b158015611a1557600080fd5b505af1158015611a29573d6000803e3d6000fd5b50505050505050565b5490565b5490565b60008073ffffffffffffffffffffffffffffffffffffffff83161515611a635760009150611a6e565b823b90506000811191505b50919050565b6040805173ffffffffffffffffffffffffffffffffffffffff83166024808301919091528251808303909101815260449091019091526020810180517bffffffffffffffffffffffffffffffffffffffffffffffffffffffff167f70a08231000000000000000000000000000000000000000000000000000000001790526000908180611b018684611f3a565b60408051808201909152601c81527f534146455f4552435f32305f42414c414e43455f52455645525445440000000060208201529193509150821515611ba3576040517f08c379a00000000000000000000000000000000000000000000000000000000081526004018080602001828103825283818151815260200191508051906020019080838360008381101561076357818101518382015260200161074b565b5095945050505050565b6040805173ffffffffffffffffffffffffffffffffffffffff8416602482015260448082018490528251808303909101815260649091019091526020810180517bffffffffffffffffffffffffffffffffffffffffffffffffffffffff167fa9059cbb00000000000000000000000000000000000000000000000000000000179052600090611c3c8582611f6b565b95945050505050565b8051602002815290565b611c576108e2565b60408051808201909152601881527f494e49545f414c52454144595f494e495449414c495a4544000000000000000060208201529015611cf3576040517f08c379a00000000000000000000000000000000000000000000000000000000081526004018080602001828103825283818151815260200191508051906020019080838360008381101561076357818101518382015260200161074b565b50611d2c611cff6116ac565b7febb05b386a8d34882b8711d156f463690983dc47815980fb82aeeff1aa43579e9063ffffffff611fb916565b565b6001546040805160208082019390935280820184905281518082038301815260609091019182905280516000939192918291908401908083835b60208310611da557805182527fffffffffffffffffffffffffffffffffffffffffffffffffffffffffffffffe09092019160209182019101611d68565b5181516020939093036101000a7fffffffffffffffffffffffffffffffffffffffffffffffffffffffffffffffff0180199091169216919091179052604051920182900390912095945050505050565b60008054604080517f0178b8bf000000000000000000000000000000000000000000000000000000008152600481018590529051839273ffffffffffffffffffffffffffffffffffffffff1691630178b8bf91602480830192602092919082900301818787803b158015611e6857600080fd5b505af1158015611e7c573d6000803e3d6000fd5b505050506040513d6020811015611e9257600080fd5b5051604080517f3b3b57de00000000000000000000000000000000000000000000000000000000815260048101869052905191925073ffffffffffffffffffffffffffffffffffffffff831691633b3b57de916024808201926020929091908290030181600087803b158015611f0757600080fd5b505af1158015611f1b573d6000803e3d6000fd5b505050506040513d6020811015611f3157600080fd5b50519392505050565b6000806000806040516020818751602089018a5afa92506000831115611f5f57805191505b50909590945092505050565b6000806040516020818551602087016000895af16000811115611faf573d8015611f9c5760208114611fa557611fad565b60019350611fad565b600183511493505b505b5090949350505050565b90555600a165627a7a723058204ef7ff58d090e12101da3cf3f2ce0dfb34fd6770cc4b9b99a15144e84349fa6e0029ebb05b386a8d34882b8711d156f463690983dc47815980fb82aeeff1aa43579e",
  "devdoc": {
    "methods": {
      "allowRecoverability(address)": {
        "details": "By default deriving from AragonApp makes it recoverable",
        "params": {
          "token": "Token address that would be recovered"
        },
        "return": "bool whether the app allows the recovery"
      },
      "canPerform(address,bytes32,uint256[])": {
        "details": "Check whether an action can be performed by a sender for a particular role on this app",
        "params": {
          "_params": "Permission params for the role",
          "_role": "Role on this app",
          "_sender": "Sender of the call"
        },
        "return": "Boolean indicating whether the sender has the permissions to perform the action.        Always returns false if the app hasn't been initialized yet."
      },
      "createName(bytes32,address)": {
        "params": {
          "_label": "Label of new subdomain",
          "_owner": "Owner of new subdomain"
        },
        "return": "node Hash of created node"
      },
      "createNameAndPoint(bytes32,address)": {
        "params": {
          "_label": "Label of new subdomain",
          "_target": "Ethereum address this new subdomain label will point to"
        },
        "return": "node Hash of created node"
      },
      "deleteName(bytes32)": {
        "params": {
          "_label": "Label of subdomain to deregister"
        }
      },
      "getInitializationBlock()": {
        "return": "Block number in which the contract was initialized"
      },
      "getRecoveryVault()": {
        "details": "Get the recovery vault for the app",
        "return": "Recovery vault address for the app"
      },
      "hasInitialized()": {
        "return": "Whether the contract has been initialized by the time of the current block"
      },
      "initialize(address,bytes32)": {
        "details": "Initialize can only be called once. It saves the block number in which it was initialized. This contract must be the owner of the `_rootNode` node so that it can create subdomains.",
        "params": {
          "_ens": "Address of ENS registry",
          "_rootNode": "Node to allocate subdomains under"
        }
      },
      "pointRootNode(address)": {
        "params": {
          "_target": "Ethereum address root node will point to"
        }
      },
      "transferToVault(address)": {
        "params": {
          "_token": "Token balance to be sent to recovery vault."
        }
      }
    }
  },
  "userdoc": {
    "methods": {
      "createName(bytes32,address)": {
        "notice": "Create a new ENS subdomain record for `_label` and assign ownership to `_owner`"
      },
      "createNameAndPoint(bytes32,address)": {
        "notice": "Create a new ENS subdomain record for `_label` that resolves to `_target` and is owned by this ENSSubdomainRegistrar"
      },
      "deleteName(bytes32)": {
        "notice": "Deregister ENS subdomain record for `_label`"
      },
      "initialize(address,bytes32)": {
        "notice": "Initialize this ENSSubdomainRegistrar instance with `_ens` as the root ENS registry and `_rootNode` as the node to allocate subdomains under"
      },
      "pointRootNode(address)": {
        "notice": "Resolve this ENSSubdomainRegistrar's root node to `_target`"
      },
      "transferToVault(address)": {
        "notice": "Send funds to recovery Vault. This contract should never receive funds,        but in case it does, this function allows one to recover them."
      }
    }
  }
}