{
  "address": "0x47c980A62bA89F738A668ED1709Ca5fef2384F21",
  "abi": [
    {
      "constant": true,
      "inputs": [],
      "name": "hasInitialized",
      "outputs": [
        {
          "name": "",
          "type": "bool"
        }
      ],
      "payable": false,
      "stateMutability": "view",
      "type": "function"
    },
    {
      "constant": true,
      "inputs": [],
      "name": "KERNEL_APP_ID",
      "outputs": [
        {
          "name": "",
          "type": "bytes32"
        }
      ],
      "payable": false,
      "stateMutability": "pure",
      "type": "function"
    },
    {
      "constant": true,
      "inputs": [],
      "name": "APP_ADDR_NAMESPACE",
      "outputs": [
        {
          "name": "",
          "type": "bytes32"
        }
      ],
      "payable": false,
      "stateMutability": "pure",
      "type": "function"
    },
    {
      "constant": true,
      "inputs": [],
      "name": "getRecoveryVault",
      "outputs": [
        {
          "name": "",
          "type": "address"
        }
      ],
      "payable": false,
      "stateMutability": "view",
      "type": "function"
    },
    {
      "constant": false,
      "inputs": [
        {
          "name": "_appId",
          "type": "bytes32"
        },
        {
          "name": "_appBase",
          "type": "address"
        },
        {
          "name": "_initializePayload",
          "type": "bytes"
        },
        {
          "name": "_setDefault",
          "type": "bool"
        }
      ],
      "name": "newAppInstance",
      "outputs": [
        {
          "name": "appProxy",
          "type": "address"
        }
      ],
      "payable": false,
      "stateMutability": "nonpayable",
      "type": "function"
    },
    {
      "constant": true,
      "inputs": [
        {
          "name": "",
          "type": "bytes32"
        },
        {
          "name": "",
          "type": "bytes32"
        }
      ],
      "name": "apps",
      "outputs": [
        {
          "name": "",
          "type": "address"
        }
      ],
      "payable": false,
      "stateMutability": "view",
      "type": "function"
    },
    {
      "constant": false,
      "inputs": [
        {
          "name": "_baseAcl",
          "type": "address"
        },
        {
          "name": "_permissionsCreator",
          "type": "address"
        }
      ],
      "name": "initialize",
      "outputs": [],
      "payable": false,
      "stateMutability": "nonpayable",
      "type": "function"
    },
    {
      "constant": true,
      "inputs": [],
      "name": "CORE_NAMESPACE",
      "outputs": [
        {
          "name": "",
          "type": "bytes32"
        }
      ],
      "payable": false,
      "stateMutability": "pure",
      "type": "function"
    },
    {
      "constant": true,
      "inputs": [
        {
          "name": "token",
          "type": "address"
        }
      ],
      "name": "allowRecoverability",
      "outputs": [
        {
          "name": "",
          "type": "bool"
        }
      ],
      "payable": false,
      "stateMutability": "view",
      "type": "function"
    },
    {
      "constant": false,
      "inputs": [
        {
          "name": "_appId",
          "type": "bytes32"
        },
        {
          "name": "_appBase",
          "type": "address"
        }
      ],
      "name": "newAppInstance",
      "outputs": [
        {
          "name": "appProxy",
          "type": "address"
        }
      ],
      "payable": false,
      "stateMutability": "nonpayable",
      "type": "function"
    },
    {
      "constant": true,
      "inputs": [],
      "name": "recoveryVaultAppId",
      "outputs": [
        {
          "name": "",
          "type": "bytes32"
        }
      ],
      "payable": false,
      "stateMutability": "view",
      "type": "function"
    },
    {
      "constant": true,
      "inputs": [],
      "name": "getInitializationBlock",
      "outputs": [
        {
          "name": "",
          "type": "uint256"
        }
      ],
      "payable": false,
      "stateMutability": "view",
      "type": "function"
    },
    {
      "constant": false,
      "inputs": [
        {
          "name": "_recoveryVaultAppId",
          "type": "bytes32"
        }
      ],
      "name": "setRecoveryVaultAppId",
      "outputs": [],
      "payable": false,
      "stateMutability": "nonpayable",
      "type": "function"
    },
    {
      "constant": true,
      "inputs": [],
      "name": "APP_MANAGER_ROLE",
      "outputs": [
        {
          "name": "",
          "type": "bytes32"
        }
      ],
      "payable": false,
      "stateMutability": "view",
      "type": "function"
    },
    {
      "constant": false,
      "inputs": [
        {
          "name": "_appId",
          "type": "bytes32"
        },
        {
          "name": "_appBase",
          "type": "address"
        }
      ],
      "name": "newPinnedAppInstance",
      "outputs": [
        {
          "name": "appProxy",
          "type": "address"
        }
      ],
      "payable": false,
      "stateMutability": "nonpayable",
      "type": "function"
    },
    {
      "constant": false,
      "inputs": [
        {
          "name": "_token",
          "type": "address"
        }
      ],
      "name": "transferToVault",
      "outputs": [],
      "payable": false,
      "stateMutability": "nonpayable",
      "type": "function"
    },
    {
      "constant": false,
      "inputs": [
        {
          "name": "_namespace",
          "type": "bytes32"
        },
        {
          "name": "_appId",
          "type": "bytes32"
        },
        {
          "name": "_app",
          "type": "address"
        }
      ],
      "name": "setApp",
      "outputs": [],
      "payable": false,
      "stateMutability": "nonpayable",
      "type": "function"
    },
    {
      "constant": true,
      "inputs": [
        {
          "name": "_namespace",
          "type": "bytes32"
        },
        {
          "name": "_appId",
          "type": "bytes32"
        }
      ],
      "name": "getApp",
      "outputs": [
        {
          "name": "",
          "type": "address"
        }
      ],
      "payable": false,
      "stateMutability": "view",
      "type": "function"
    },
    {
      "constant": false,
      "inputs": [
        {
          "name": "_appId",
          "type": "bytes32"
        },
        {
          "name": "_appBase",
          "type": "address"
        },
        {
          "name": "_initializePayload",
          "type": "bytes"
        },
        {
          "name": "_setDefault",
          "type": "bool"
        }
      ],
      "name": "newPinnedAppInstance",
      "outputs": [
        {
          "name": "appProxy",
          "type": "address"
        }
      ],
      "payable": false,
      "stateMutability": "nonpayable",
      "type": "function"
    },
    {
      "constant": false,
      "inputs": [
        {
          "name": "_kernel",
          "type": "address"
        },
        {
          "name": "_appId",
          "type": "bytes32"
        },
        {
          "name": "_initializePayload",
          "type": "bytes"
        }
      ],
      "name": "newAppProxyPinned",
      "outputs": [
        {
          "name": "",
          "type": "address"
        }
      ],
      "payable": false,
      "stateMutability": "nonpayable",
      "type": "function"
    },
    {
      "constant": true,
      "inputs": [],
      "name": "APP_BASES_NAMESPACE",
      "outputs": [
        {
          "name": "",
          "type": "bytes32"
        }
      ],
      "payable": false,
      "stateMutability": "pure",
      "type": "function"
    },
    {
      "constant": true,
      "inputs": [],
      "name": "acl",
      "outputs": [
        {
          "name": "",
          "type": "address"
        }
      ],
      "payable": false,
      "stateMutability": "view",
      "type": "function"
    },
    {
      "constant": true,
      "inputs": [],
      "name": "isPetrified",
      "outputs": [
        {
          "name": "",
          "type": "bool"
        }
      ],
      "payable": false,
      "stateMutability": "view",
      "type": "function"
    },
    {
      "constant": false,
      "inputs": [
        {
          "name": "_kernel",
          "type": "address"
        },
        {
          "name": "_appId",
          "type": "bytes32"
        }
      ],
      "name": "newAppProxy",
      "outputs": [
        {
          "name": "",
          "type": "address"
        }
      ],
      "payable": false,
      "stateMutability": "nonpayable",
      "type": "function"
    },
    {
      "constant": true,
      "inputs": [],
      "name": "DEFAULT_ACL_APP_ID",
      "outputs": [
        {
          "name": "",
          "type": "bytes32"
        }
      ],
      "payable": false,
      "stateMutability": "pure",
      "type": "function"
    },
    {
      "constant": false,
      "inputs": [
        {
          "name": "_kernel",
          "type": "address"
        },
        {
          "name": "_appId",
          "type": "bytes32"
        },
        {
          "name": "_initializePayload",
          "type": "bytes"
        }
      ],
      "name": "newAppProxy",
      "outputs": [
        {
          "name": "",
          "type": "address"
        }
      ],
      "payable": false,
      "stateMutability": "nonpayable",
      "type": "function"
    },
    {
      "constant": true,
      "inputs": [
        {
          "name": "_who",
          "type": "address"
        },
        {
          "name": "_where",
          "type": "address"
        },
        {
          "name": "_what",
          "type": "bytes32"
        },
        {
          "name": "_how",
          "type": "bytes"
        }
      ],
      "name": "hasPermission",
      "outputs": [
        {
          "name": "",
          "type": "bool"
        }
      ],
      "payable": false,
      "stateMutability": "view",
      "type": "function"
    },
    {
      "constant": false,
      "inputs": [
        {
          "name": "_kernel",
          "type": "address"
        },
        {
          "name": "_appId",
          "type": "bytes32"
        }
      ],
      "name": "newAppProxyPinned",
      "outputs": [
        {
          "name": "",
          "type": "address"
        }
      ],
      "payable": false,
      "stateMutability": "nonpayable",
      "type": "function"
    },
    {
      "inputs": [
        {
          "name": "_shouldPetrify",
          "type": "bool"
        }
      ],
      "payable": false,
      "stateMutability": "nonpayable",
      "type": "constructor"
    },
    {
      "anonymous": false,
      "inputs": [
        {
          "indexed": false,
          "name": "proxy",
          "type": "address"
        },
        {
          "indexed": false,
          "name": "isUpgradeable",
          "type": "bool"
        },
        {
          "indexed": false,
          "name": "appId",
          "type": "bytes32"
        }
      ],
      "name": "NewAppProxy",
      "type": "event"
    },
    {
      "anonymous": false,
      "inputs": [
        {
          "indexed": true,
          "name": "vault",
          "type": "address"
        },
        {
          "indexed": true,
          "name": "token",
          "type": "address"
        },
        {
          "indexed": false,
          "name": "amount",
          "type": "uint256"
        }
      ],
      "name": "RecoverToVault",
      "type": "event"
    },
    {
      "anonymous": false,
      "inputs": [
        {
          "indexed": true,
          "name": "namespace",
          "type": "bytes32"
        },
        {
          "indexed": true,
          "name": "appId",
          "type": "bytes32"
        },
        {
          "indexed": false,
          "name": "app",
          "type": "address"
        }
      ],
      "name": "SetApp",
      "type": "event"
    }
  ],
  "transactionHash": "0x327d2ac25fc557dda35e0f72f4e90024441cdfda00a410f9c75093c1114dfaa9",
  "args": [
    true
  ],
  "solcInputHash": "635d22341e808aa0fa87d204ded34dfa",
  "bytecode": "0x60806040523480156200001157600080fd5b506040516020806200318f833981016040525180156200003e576200003e64010000000062000045810204565b5062000263565b620000586401000000006200014d810204565b60408051808201909152601881527f494e49545f414c52454144595f494e495449414c495a454400000000000000006020820152901562000134576040517f08c379a00000000000000000000000000000000000000000000000000000000081526004018080602001828103825283818151815260200191508051906020019080838360005b83811015620000f8578181015183820152602001620000de565b50505050905090810190601f168015620001265780820380516001836020036101000a031916815260200191505b509250505060405180910390fd5b506200014b6000196401000000006200017c810204565b565b6000620001776000805160206200316f83398151915264010000000062001dcf6200025b82021704565b905090565b6200018f6401000000006200014d810204565b60408051808201909152601881527f494e49545f414c52454144595f494e495449414c495a45440000000000000000602082015290156200022e576040517f08c379a000000000000000000000000000000000000000000000000000000000815260040180806020018281038252838181518152602001915080519060200190808383600083811015620000f8578181015183820152602001620000de565b50620002586000805160206200316f833981519152826401000000006200203b6200025f82021704565b50565b5490565b9055565b612efc80620002736000396000f300608060405260043610620001865763ffffffff7c01000000000000000000000000000000000000000000000000000000006000350416630803fac081146200018b5780631113ed0d14620001b7578063178e607914620001e157806332f0a3b514620001f9578063397edd41146200023a5780634558850c14620002b7578063485cc95514620002d5578063756f6049146200030e5780637e7db6e1146200032657806380cd5ac3146200035757806386070cfe146200038b5780638b3dd74914620003a35780638c61757d14620003bb5780638ea8dc9d14620003d6578063958fde8214620003ee5780639d4941d81462000422578063ae5b25401462000453578063be00bbd8146200048a578063c050a7a614620004a8578063d162f8b01462000525578063db8a61d4146200059e578063de28735914620005b6578063de4796ed14620005ce578063e156a8f314620005e6578063e8187ff0146200061a578063ede658b01462000632578063fdef910614620006ab578063ff289fc5146200072a575b600080fd5b3480156200019857600080fd5b50620001a36200075e565b604080519115158252519081900360200190f35b348015620001c457600080fd5b50620001cf6200078c565b60408051918252519081900360200190f35b348015620001ee57600080fd5b50620001cf620007b0565b3480156200020657600080fd5b5062000211620007d4565b6040805173ffffffffffffffffffffffffffffffffffffffff9092168252519081900360200190f35b3480156200024757600080fd5b50604080516020600460443581810135601f810184900484028501840190955284845262000211948235946024803573ffffffffffffffffffffffffffffffffffffffff16953695946064949201919081908401838280828437509497505050509135151592506200081e915050565b348015620002c457600080fd5b5062000211600435602435620009dd565b348015620002e257600080fd5b506200030c73ffffffffffffffffffffffffffffffffffffffff6004358116906024351662000a0d565b005b3480156200031b57600080fd5b50620001cf62000c6c565b3480156200033357600080fd5b50620001a373ffffffffffffffffffffffffffffffffffffffff6004351662000c90565b3480156200036457600080fd5b506200021160043573ffffffffffffffffffffffffffffffffffffffff6024351662000c96565b3480156200039857600080fd5b50620001cf62000dc0565b348015620003b057600080fd5b50620001cf62000dc6565b348015620003c857600080fd5b506200030c60043562000df8565b348015620003e357600080fd5b50620001cf62000eff565b348015620003fb57600080fd5b506200021160043573ffffffffffffffffffffffffffffffffffffffff6024351662000f23565b3480156200042f57600080fd5b506200030c73ffffffffffffffffffffffffffffffffffffffff6004351662001044565b3480156200046057600080fd5b506200030c60043560243573ffffffffffffffffffffffffffffffffffffffff604435166200137c565b3480156200049757600080fd5b506200021160043560243562001470565b348015620004b557600080fd5b50604080516020600460443581810135601f810184900484028501840190955284845262000211948235946024803573ffffffffffffffffffffffffffffffffffffffff1695369594606494920191908190840183828082843750949750505050913515159250620014a1915050565b3480156200053257600080fd5b50604080516020600460443581810135601f81018490048402850184019095528484526200021194823573ffffffffffffffffffffffffffffffffffffffff16946024803595369594606494920191908190840183828082843750949750620015d89650505050505050565b348015620005ab57600080fd5b50620001cf620016fd565b348015620005c357600080fd5b506200021162001721565b348015620005db57600080fd5b50620001a36200176f565b348015620005f357600080fd5b506200021173ffffffffffffffffffffffffffffffffffffffff60043516602435620017a2565b3480156200062757600080fd5b50620001cf620017c8565b3480156200063f57600080fd5b50604080516020600460443581810135601f81018490048402850184019095528484526200021194823573ffffffffffffffffffffffffffffffffffffffff16946024803595369594606494920191908190840183828082843750949750620017ec9650505050505050565b348015620006b857600080fd5b50604080516020601f606435600481810135928301849004840285018401909552818452620001a39473ffffffffffffffffffffffffffffffffffffffff8135811695602480359092169560443595369560849401918190840183828082843750949750620019119650505050505050565b3480156200073757600080fd5b506200021173ffffffffffffffffffffffffffffffffffffffff6004351660243562001a6e565b6000806200076b62000dc6565b90508015801590620007865750806200078362001a8d565b10155b91505090565b7f3b4bf6bf3ad5000ecf0f989d5befde585c6860fea3e574a4fab4c49d1c177d9c90565b7fd6f028ca0e8edb4a8c9757ca4fdccab25fa1e0317da1188108f7d2dee14902fb90565b60015460009081527f9e3eae70920eeef6013879bf9155b985893698c145361c31365929723678b257602052604090205473ffffffffffffffffffffffffffffffffffffffff1690565b60007fb6d92708f3d4817afc106147d969e229ced5c46e65e0a5002a0d391287762bd06200086d7ff1f3eb40f5bc1ad1344716ced8b8a0431d840b5783aea1fd01786bc26f35ac0f8762001a91565b620008853330846200087f8562001a9f565b62001911565b60408051808201909152601281527f4b45524e454c5f415554485f4641494c45440000000000000000000000000000602082015290151562000962576040517f08c379a00000000000000000000000000000000000000000000000000000000081526004018080602001828103825283818151815260200191508051906020019080838360005b83811015620009265781810151838201526020016200090c565b50505050905090810190601f168015620009545780820380516001836020036101000a031916815260200191505b509250505060405180910390fd5b50620009907ff1f3eb40f5bc1ad1344716ced8b8a0431d840b5783aea1fd01786bc26f35ac0f888862001aa9565b6200099d308887620017ec565b92508315620009d357620009d37fd6f028ca0e8edb4a8c9757ca4fdccab25fa1e0317da1188108f7d2dee14902fb88856200137c565b5050949350505050565b600060208181529281526040808220909352908152205473ffffffffffffffffffffffffffffffffffffffff1681565b600062000a1962000dc6565b60408051808201909152601881527f494e49545f414c52454144595f494e495449414c495a454400000000000000006020820152901562000ab8576040517f08c379a000000000000000000000000000000000000000000000000000000000815260040180806020018281038252838181518152602001915080519060200190808383600083811015620009265781810151838201526020016200090c565b5062000ac362001ba9565b62000b107ff1f3eb40f5bc1ad1344716ced8b8a0431d840b5783aea1fd01786bc26f35ac0f7fe3262375f45a6e2026b7e7b18c2b807434f2508fe1a2a3dfb493c7df8f4aad6a8562001c91565b62000b3c307fe3262375f45a6e2026b7e7b18c2b807434f2508fe1a2a3dfb493c7df8f4aad6a620017a2565b90508073ffffffffffffffffffffffffffffffffffffffff1663c4d66de8836040518263ffffffff167c0100000000000000000000000000000000000000000000000000000000028152600401808273ffffffffffffffffffffffffffffffffffffffff1673ffffffffffffffffffffffffffffffffffffffff168152602001915050600060405180830381600087803b15801562000bda57600080fd5b505af115801562000bef573d6000803e3d6000fd5b5062000c4392507fd6f028ca0e8edb4a8c9757ca4fdccab25fa1e0317da1188108f7d2dee14902fb91507fe3262375f45a6e2026b7e7b18c2b807434f2508fe1a2a3dfb493c7df8f4aad6a90508362001c91565b50507f7e852e0fcfce6551c13800f1e7476f982525c2b5277ba14b24339c68416336d160015550565b7fc681a85306374a5ab27f0bbc385296a54bcd314a1948b6cf61c4ea1bc44bb9f890565b50600190565b60007fb6d92708f3d4817afc106147d969e229ced5c46e65e0a5002a0d391287762bd062000ce57ff1f3eb40f5bc1ad1344716ced8b8a0431d840b5783aea1fd01786bc26f35ac0f8562001a91565b62000cf73330846200087f8562001a9f565b60408051808201909152601281527f4b45524e454c5f415554485f4641494c45440000000000000000000000000000602082015290151562000d97576040517f08c379a000000000000000000000000000000000000000000000000000000000815260040180806020018281038252838181518152602001915080519060200190808383600083811015620009265781810151838201526020016200090c565b506040805160008082526020820190925262000db791879187916200081e565b95945050505050565b60015481565b600062000df37febb05b386a8d34882b8711d156f463690983dc47815980fb82aeeff1aa43579e62001dcf565b905090565b7fb6d92708f3d4817afc106147d969e229ced5c46e65e0a5002a0d391287762bd062000e457fd6f028ca0e8edb4a8c9757ca4fdccab25fa1e0317da1188108f7d2dee14902fb8362001a91565b62000e573330846200087f8562001a9f565b60408051808201909152601281527f4b45524e454c5f415554485f4641494c45440000000000000000000000000000602082015290151562000ef7576040517f08c379a000000000000000000000000000000000000000000000000000000000815260040180806020018281038252838181518152602001915080519060200190808383600083811015620009265781810151838201526020016200090c565b505050600155565b7fb6d92708f3d4817afc106147d969e229ced5c46e65e0a5002a0d391287762bd081565b60007fb6d92708f3d4817afc106147d969e229ced5c46e65e0a5002a0d391287762bd062000f727ff1f3eb40f5bc1ad1344716ced8b8a0431d840b5783aea1fd01786bc26f35ac0f8562001a91565b62000f843330846200087f8562001a9f565b60408051808201909152601281527f4b45524e454c5f415554485f4641494c45440000000000000000000000000000602082015290151562001024576040517f08c379a000000000000000000000000000000000000000000000000000000000815260040180806020018281038252838181518152602001915080519060200190808383600083811015620009265781810151838201526020016200090c565b506040805160008082526020820190925262000db79187918791620014a1565b6000806000620010548462000c90565b60408051808201909152601281527f5245434f5645525f444953414c4c4f57454400000000000000000000000000006020820152901515620010f4576040517f08c379a000000000000000000000000000000000000000000000000000000000815260040180806020018281038252838181518152602001915080519060200190808383600083811015620009265781810151838201526020016200090c565b50620010ff620007d4565b92506200110c8362001dd3565b60408051808201909152601a81527f5245434f5645525f5641554c545f4e4f545f434f4e54524143540000000000006020820152901515620011ac576040517f08c379a000000000000000000000000000000000000000000000000000000000815260040180806020018281038252838181518152602001915080519060200190808383600083811015620009265781810151838201526020016200090c565b5073ffffffffffffffffffffffffffffffffffffffff841615156200121a576040513031925073ffffffffffffffffffffffffffffffffffffffff84169083156108fc029084906000818181858888f1935050505015801562001213573d6000803e3d6000fd5b5062001311565b50826200124473ffffffffffffffffffffffffffffffffffffffff82163063ffffffff62001e0f16565b91506200126f73ffffffffffffffffffffffffffffffffffffffff8216848463ffffffff62001f4d16565b60408051808201909152601d81527f5245434f5645525f544f4b454e5f5452414e534645525f4641494c454400000060208201529015156200130f576040517f08c379a000000000000000000000000000000000000000000000000000000000815260040180806020018281038252838181518152602001915080519060200190808383600083811015620009265781810151838201526020016200090c565b505b8373ffffffffffffffffffffffffffffffffffffffff168373ffffffffffffffffffffffffffffffffffffffff167f596caf56044b55fb8c4ca640089bbc2b63cae3e978b851f5745cbb7c5b288e02846040518082815260200191505060405180910390a350505050565b7fb6d92708f3d4817afc106147d969e229ced5c46e65e0a5002a0d391287762bd0620013a9848462001a91565b620013bb3330846200087f8562001a9f565b60408051808201909152601281527f4b45524e454c5f415554485f4641494c4544000000000000000000000000000060208201529015156200145b576040517f08c379a000000000000000000000000000000000000000000000000000000000815260040180806020018281038252838181518152602001915080519060200190808383600083811015620009265781810151838201526020016200090c565b506200146985858562001c91565b5050505050565b60009182526020828152604080842092845291905290205473ffffffffffffffffffffffffffffffffffffffff1690565b60007fb6d92708f3d4817afc106147d969e229ced5c46e65e0a5002a0d391287762bd0620014f07ff1f3eb40f5bc1ad1344716ced8b8a0431d840b5783aea1fd01786bc26f35ac0f8762001a91565b620015023330846200087f8562001a9f565b60408051808201909152601281527f4b45524e454c5f415554485f4641494c454400000000000000000000000000006020820152901515620015a2576040517f08c379a000000000000000000000000000000000000000000000000000000000815260040180806020018281038252838181518152602001915080519060200190808383600083811015620009265781810151838201526020016200090c565b50620015d07ff1f3eb40f5bc1ad1344716ced8b8a0431d840b5783aea1fd01786bc26f35ac0f888862001aa9565b6200099d3088875b600080848484620015e8620020c4565b73ffffffffffffffffffffffffffffffffffffffff8416815260208082018490526060604083018181528451918401919091528351909160808401919085019080838360005b83811015620016485781810151838201526020016200162e565b50505050905090810190601f168015620016765780820380516001836020036101000a031916815260200191505b50945050505050604051809103906000f0801580156200169a573d6000803e3d6000fd5b506040805173ffffffffffffffffffffffffffffffffffffffff831681526000602082015280820187905290519192507fd880e726dced8808d727f02dd0e6fdd3a945b24bfee77e13367bcbe61ddbaf47919081900360600190a1949350505050565b7ff1f3eb40f5bc1ad1344716ced8b8a0431d840b5783aea1fd01786bc26f35ac0f90565b600062000df37fd6f028ca0e8edb4a8c9757ca4fdccab25fa1e0317da1188108f7d2dee14902fb7fe3262375f45a6e2026b7e7b18c2b807434f2508fe1a2a3dfb493c7df8f4aad6a62001470565b60007fffffffffffffffffffffffffffffffffffffffffffffffffffffffffffffffff6200179c62000dc6565b14905090565b60408051600080825260208201909252620017c19084908490620017ec565b9392505050565b7fe3262375f45a6e2026b7e7b18c2b807434f2508fe1a2a3dfb493c7df8f4aad6a90565b600080848484620017fc620020d5565b73ffffffffffffffffffffffffffffffffffffffff8416815260208082018490526060604083018181528451918401919091528351909160808401919085019080838360005b838110156200185c57818101518382015260200162001842565b50505050905090810190601f1680156200188a5780820380516001836020036101000a031916815260200191505b50945050505050604051809103906000f080158015620018ae573d6000803e3d6000fd5b506040805173ffffffffffffffffffffffffffffffffffffffff831681526001602082015280820187905290519192507fd880e726dced8808d727f02dd0e6fdd3a945b24bfee77e13367bcbe61ddbaf47919081900360600190a1949350505050565b6000806200191e62001721565b905073ffffffffffffffffffffffffffffffffffffffff81161580159062001a6457506040517ffdef910600000000000000000000000000000000000000000000000000000000815273ffffffffffffffffffffffffffffffffffffffff878116600483019081528782166024840152604483018790526080606484019081528651608485015286519285169363fdef9106938b938b938b938b9360a490910190602085019080838360005b83811015620019e4578181015183820152602001620019ca565b50505050905090810190601f16801562001a125780820380516001836020036101000a031916815260200191505b5095505050505050602060405180830381600087803b15801562001a3557600080fd5b505af115801562001a4a573d6000803e3d6000fd5b505050506040513d602081101562001a6157600080fd5b50515b9695505050505050565b60408051600080825260208201909252620017c19084908490620015d8565b4390565b6060620017c1838362001fde565b8051602002815290565b600062001ab7848462001470565b905073ffffffffffffffffffffffffffffffffffffffff81161562001b965760408051808201909152601981527f4b45524e454c5f494e56414c49445f4150505f4348414e474500000000000000602082015273ffffffffffffffffffffffffffffffffffffffff8281169084161462001b8f576040517f08c379a000000000000000000000000000000000000000000000000000000000815260040180806020018281038252838181518152602001915080519060200190808383600083811015620009265781810151838201526020016200090c565b5062001ba3565b62001ba384848462001c91565b50505050565b62001bb362000dc6565b60408051808201909152601881527f494e49545f414c52454144595f494e495449414c495a454400000000000000006020820152901562001c52576040517f08c379a000000000000000000000000000000000000000000000000000000000815260040180806020018281038252838181518152602001915080519060200190808383600083811015620009265781810151838201526020016200090c565b5062001c8f62001c6162001a8d565b7febb05b386a8d34882b8711d156f463690983dc47815980fb82aeeff1aa43579e9063ffffffff6200203b16565b565b62001c9c8162001dd3565b60408051808201909152601781527f4b45524e454c5f4150505f4e4f545f434f4e5452414354000000000000000000602082015290151562001d3c576040517f08c379a000000000000000000000000000000000000000000000000000000000815260040180806020018281038252838181518152602001915080519060200190808383600083811015620009265781810151838201526020016200090c565b5060008381526020818152604080832085845282529182902080547fffffffffffffffffffffffff00000000000000000000000000000000000000001673ffffffffffffffffffffffffffffffffffffffff851690811790915582519081529151849286927f2ec1ae0a449b7ae354b9dacfb3ade6b6332ba26b7fcbb935835fa39dd7263b2392918290030190a3505050565b5490565b60008073ffffffffffffffffffffffffffffffffffffffff8316151562001dfe576000915062001e09565b823b90506000811191505b50919050565b6040805173ffffffffffffffffffffffffffffffffffffffff83166024808301919091528251808303909101815260449091019091526020810180517bffffffffffffffffffffffffffffffffffffffffffffffffffffffff167f70a0823100000000000000000000000000000000000000000000000000000000179052600090818062001e9e86846200203f565b60408051808201909152601c81527f534146455f4552435f32305f42414c414e43455f5245564552544544000000006020820152919350915082151562001f43576040517f08c379a000000000000000000000000000000000000000000000000000000000815260040180806020018281038252838181518152602001915080519060200190808383600083811015620009265781810151838201526020016200090c565b5095945050505050565b6040805173ffffffffffffffffffffffffffffffffffffffff8416602482015260448082018490528251808303909101815260649091019091526020810180517bffffffffffffffffffffffffffffffffffffffffffffffffffffffff167fa9059cbb0000000000000000000000000000000000000000000000000000000017905260009062000db7858262002071565b6040805160028082526060808301845292602083019080388339019050509050828160008151811015156200200f57fe5b6020908102909101015280518290829060019081106200202b57fe5b6020908102909101015292915050565b9055565b6000806000806040516020818751602089018a5afa925060008311156200206557805191505b50909590945092505050565b6000806040516020818551602087016000895af16000811115620020ba573d8015620020a65760208114620020b057620020b8565b60019350620020b8565b600183511493505b505b5090949350505050565b6040516106fd80620020e783390190565b6040516106ed80620027e4833901905600608060405234801561001057600080fd5b506040516106fd3803806106fd8339810160409081528151602083015191830151909201828282600061004b8464010000000061017a810204565b61005d836401000000006101a2810204565b61006f836401000000006101d9810204565b90506000825111156101185761008d816401000000006102a9810204565b151561009857600080fd5b80600160a060020a03168260405180828051906020019080838360005b838110156100cd5781810151838201526020016100b5565b50505050905090810190601f1680156100fa5780820380516001836020036101000a031916815260200191505b50915050600060405180830381855af4915050151561011857600080fd5b50505050610145610137836101d9640100000000026401000000009004565b6401000000006102d6810204565b6101676101596401000000006102fb810204565b6401000000006102a9810204565b151561017257600080fd5b505050610354565b61019f6000805160206106bd8339815191528264010000000061032661032682021704565b50565b61019f7fd625496217aa6a3453eecb9c3489dc5a53e6c67b444329ea2b2cbc9ff547639b8264010000000061032661032682021704565b60006101ec64010000000061032a810204565b604080517fbe00bbd80000000000000000000000000000000000000000000000000000000081527ff1f3eb40f5bc1ad1344716ced8b8a0431d840b5783aea1fd01786bc26f35ac0f6004820152602481018590529051600160a060020a03929092169163be00bbd8916044808201926020929091908290030181600087803b15801561027757600080fd5b505af115801561028b573d6000803e3d6000fd5b505050506040513d60208110156102a157600080fd5b505192915050565b600080600160a060020a03831615156102c557600091506102d0565b823b90506000811191505b50919050565b61019f6000805160206106dd8339815191528264010000000061032661032682021704565b60006103216000805160206106dd83398151915264010000000061031e61035082021704565b905090565b9055565b60006103216000805160206106bd83398151915264010000000061031e61035082021704565b5490565b61035a806103636000396000f30060806040526004361061006c5763ffffffff7c01000000000000000000000000000000000000000000000000000000006000350416634555d5c9811461012b57806348a0c8dd146101525780635c60da1b1461017b57806380afdea8146101b9578063d4aae0c4146101ce575b6127107f665fd576fbbe6f247aff98f5c94a561e3f71ec2d3c988d56f12d342396c50cea6000825a10156100e15760003411361583541616156100dc576040513381523460208201527f15eeaa57c7bd188c1388020bcadc2c436ec60d647d36ef5b9eb3c742217ddee1604082a1005b600080fd5b6100e96101e3565b9050610126816000368080601f016020809104026020016040519081016040528093929190818152602001838380828437506101f2945050505050565b505050005b34801561013757600080fd5b50610140610233565b60408051918252519081900360200190f35b34801561015e57600080fd5b50610167610238565b604080519115158252519081900360200190f35b34801561018757600080fd5b506101906101e3565b6040805173ffffffffffffffffffffffffffffffffffffffff9092168252519081900360200190f35b3480156101c557600080fd5b50610140610263565b3480156101da57600080fd5b5061019061028e565b60006101ed6102b9565b905090565b60006101fd836102e4565b151561020857600080fd5b612710905060008083516020850186855a03f43d604051816000823e82801561022f578282f35b8282fd5b600190565b60006101ed7f665fd576fbbe6f247aff98f5c94a561e3f71ec2d3c988d56f12d342396c50cea61031e565b60006101ed7fd625496217aa6a3453eecb9c3489dc5a53e6c67b444329ea2b2cbc9ff547639b61031e565b60006101ed7f4172f0f7d2289153072b0a6ca36959e0cbe2efc3afe50fc81636caa96338137b61031e565b60006101ed7fdee64df20d65e53d7f51cb6ab6d921a0a6a638a91e942e1d8d02df28e31c038e61031e565b60008073ffffffffffffffffffffffffffffffffffffffff8316151561030d5760009150610318565b823b90506000811191505b50919050565b5490565b5490565b9055565b90555600a165627a7a723058206231afdea20ac283aafb3121a8668f4204719829e8df036248fbd9f9d2e2c93f00294172f0f7d2289153072b0a6ca36959e0cbe2efc3afe50fc81636caa96338137bdee64df20d65e53d7f51cb6ab6d921a0a6a638a91e942e1d8d02df28e31c038e608060405234801561001057600080fd5b506040516106ed3803806106ed8339810160409081528151602083015191830151909201828282600061004b84640100000000610124810204565b61005d8364010000000061014c810204565b61006f83640100000000610183810204565b90506000825111156101185761008d81640100000000610253810204565b151561009857600080fd5b80600160a060020a03168260405180828051906020019080838360005b838110156100cd5781810151838201526020016100b5565b50505050905090810190601f1680156100fa5780820380516001836020036101000a031916815260200191505b50915050600060405180830381855af4915050151561011857600080fd5b505050505050506102b3565b6101496000805160206106cd833981519152826401000000006103d761028082021704565b50565b6101497fd625496217aa6a3453eecb9c3489dc5a53e6c67b444329ea2b2cbc9ff547639b826401000000006103d761028082021704565b6000610196640100000000610284810204565b604080517fbe00bbd80000000000000000000000000000000000000000000000000000000081527ff1f3eb40f5bc1ad1344716ced8b8a0431d840b5783aea1fd01786bc26f35ac0f6004820152602481018590529051600160a060020a03929092169163be00bbd8916044808201926020929091908290030181600087803b15801561022157600080fd5b505af1158015610235573d6000803e3d6000fd5b505050506040513d602081101561024b57600080fd5b505192915050565b600080600160a060020a038316151561026f576000915061027a565b823b90506000811191505b50919050565b9055565b60006102aa6000805160206106cd8339815191526401000000006103cf6102af82021704565b905090565b5490565b61040b806102c26000396000f30060806040526004361061006c5763ffffffff7c01000000000000000000000000000000000000000000000000000000006000350416634555d5c9811461012b57806348a0c8dd146101525780635c60da1b1461017b57806380afdea8146101b9578063d4aae0c4146101ce575b6127107f665fd576fbbe6f247aff98f5c94a561e3f71ec2d3c988d56f12d342396c50cea6000825a10156100e15760003411361583541616156100dc576040513381523460208201527f15eeaa57c7bd188c1388020bcadc2c436ec60d647d36ef5b9eb3c742217ddee1604082a1005b600080fd5b6100e96101e3565b9050610126816000368080601f016020809104026020016040519081016040528093929190818152602001838380828437506101fa945050505050565b505050005b34801561013757600080fd5b5061014061023b565b60408051918252519081900360200190f35b34801561015e57600080fd5b50610167610240565b604080519115158252519081900360200190f35b34801561018757600080fd5b506101906101e3565b6040805173ffffffffffffffffffffffffffffffffffffffff9092168252519081900360200190f35b3480156101c557600080fd5b5061014061026b565b3480156101da57600080fd5b50610190610296565b60006101f56101f061026b565b6102c1565b905090565b600061020583610395565b151561021057600080fd5b612710905060008083516020850186855a03f43d604051816000823e828015610237578282f35b8282fd5b600290565b60006101f57f665fd576fbbe6f247aff98f5c94a561e3f71ec2d3c988d56f12d342396c50cea6103cf565b60006101f57fd625496217aa6a3453eecb9c3489dc5a53e6c67b444329ea2b2cbc9ff547639b6103cf565b60006101f57f4172f0f7d2289153072b0a6ca36959e0cbe2efc3afe50fc81636caa96338137b6103cf565b60006102cb610296565b604080517fbe00bbd80000000000000000000000000000000000000000000000000000000081527ff1f3eb40f5bc1ad1344716ced8b8a0431d840b5783aea1fd01786bc26f35ac0f600482015260248101859052905173ffffffffffffffffffffffffffffffffffffffff929092169163be00bbd8916044808201926020929091908290030181600087803b15801561036357600080fd5b505af1158015610377573d6000803e3d6000fd5b505050506040513d602081101561038d57600080fd5b505192915050565b60008073ffffffffffffffffffffffffffffffffffffffff831615156103be57600091506103c9565b823b90506000811191505b50919050565b5490565b5490565b9055565b90555600a165627a7a72305820ccb87c31c8ca63882b67f6a59b0f4d5fb3ca9083f80b6652712dcaba9aab0e2b00294172f0f7d2289153072b0a6ca36959e0cbe2efc3afe50fc81636caa96338137ba165627a7a7230582092afe40eb96c3dd9236361d29359088db13c5b2518a347a7376147002374ea7b0029ebb05b386a8d34882b8711d156f463690983dc47815980fb82aeeff1aa43579e",
  "devdoc": {
    "methods": {
      "acl()": {
        "details": "Get the installed ACL app",
        "return": "ACL app"
      },
      "allowRecoverability(address)": {
        "details": "By default deriving from AragonApp makes it recoverable",
        "params": {
          "token": "Token address that would be recovered"
        },
        "return": "bool whether the app allows the recovery"
      },
      "getApp(bytes32,bytes32)": {
        "details": "Get the address of an app instance or base implementation",
        "params": {
          "_appId": "Identifier for app",
          "_namespace": "App namespace to use"
        },
        "return": "Address of the app"
      },
      "getInitializationBlock()": {
        "return": "Block number in which the contract was initialized"
      },
      "getRecoveryVault()": {
        "details": "Get the address of the recovery Vault instance (to recover funds)",
        "return": "Address of the Vault"
      },
      "hasInitialized()": {
        "return": "Whether the contract has been initialized by the time of the current block"
      },
      "hasPermission(address,address,bytes32,bytes)": {
        "details": "Function called by apps to check ACL on kernel or to check permission status",
        "params": {
          "_how": "Extra data for ACL auth",
          "_what": "Identifier for a group of actions in app",
          "_where": "Address of the app",
          "_who": "Sender of the original call"
        },
        "return": "Boolean indicating whether the ACL allows the role or not.        Always returns false if the kernel hasn't been initialized yet."
      },
      "initialize(address,address)": {
        "details": "Initialize can only be called once. It saves the block number in which it was initialized.",
        "params": {
          "_baseAcl": "Address of base ACL app",
          "_permissionsCreator": "Entity that will be given permission over createPermission"
        }
      },
      "newAppInstance(bytes32,address)": {
        "details": "Create a new instance of an app linked to this kernel",
        "params": {
          "_appBase": "Address of the app's base implementation",
          "_appId": "Identifier for app"
        },
        "return": "AppProxy instance"
      },
      "newAppInstance(bytes32,address,bytes,bool)": {
        "details": "Create a new instance of an app linked to this kernel and set its base     implementation if it was not already set",
        "params": {
          "_appBase": "Address of the app's base implementation",
          "_appId": "Identifier for app",
          "_initializePayload": "Payload for call made by the proxy during its construction to initialize",
          "_setDefault": "Whether the app proxy app is the default one.       Useful when the Kernel needs to know of an instance of a particular app,       like Vault for escape hatch mechanism."
        },
        "return": "AppProxy instance"
      },
      "newAppProxy(address,bytes32)": {
        "params": {
          "_appId": "Identifier for app",
          "_kernel": "App's Kernel reference"
        },
        "return": "AppProxyUpgradeable"
      },
      "newAppProxy(address,bytes32,bytes)": {
        "params": {
          "_appId": "Identifier for app",
          "_kernel": "App's Kernel reference"
        },
        "return": "AppProxyUpgradeable"
      },
      "newAppProxyPinned(address,bytes32)": {
        "params": {
          "_appId": "Identifier for app",
          "_kernel": "App's Kernel reference"
        },
        "return": "AppProxyPinned"
      },
      "newAppProxyPinned(address,bytes32,bytes)": {
        "params": {
          "_appId": "Identifier for app",
          "_initializePayload": "Proxy initialization payload",
          "_kernel": "App's Kernel reference"
        },
        "return": "AppProxyPinned"
      },
      "newPinnedAppInstance(bytes32,address)": {
        "details": "Create a new pinned instance of an app linked to this kernel",
        "params": {
          "_appBase": "Address of the app's base implementation",
          "_appId": "Identifier for app"
        },
        "return": "AppProxy instance"
      },
      "newPinnedAppInstance(bytes32,address,bytes,bool)": {
        "details": "Create a new pinned instance of an app linked to this kernel and set     its base implementation if it was not already set",
        "params": {
          "_appBase": "Address of the app's base implementation",
          "_appId": "Identifier for app",
          "_initializePayload": "Payload for call made by the proxy during its construction to initialize",
          "_setDefault": "Whether the app proxy app is the default one.       Useful when the Kernel needs to know of an instance of a particular app,       like Vault for escape hatch mechanism."
        },
        "return": "AppProxy instance"
      },
      "setApp(bytes32,bytes32,address)": {
        "details": "Set the resolving address of an app instance or base implementation",
        "params": {
          "_app": "Address of the app instance or base implementation",
          "_appId": "Identifier for app",
          "_namespace": "App namespace to use"
        },
        "return": "ID of app"
      },
      "setRecoveryVaultAppId(bytes32)": {
        "details": "Set the default vault id for the escape hatch mechanism",
        "params": {
          "_recoveryVaultAppId": "Identifier of the recovery vault app"
        }
      },
      "transferToVault(address)": {
        "params": {
          "_token": "Token balance to be sent to recovery vault."
        }
      }
    }
  },
  "userdoc": {
    "methods": {
      "initialize(address,address)": {
        "notice": "Initialize this kernel instance along with its ACL and set `_permissionsCreator` as the entity that can create other permissions"
      },
      "newAppInstance(bytes32,address)": {
        "notice": "Create a new upgradeable instance of `_appId` app linked to the Kernel, setting its code to `_appBase`"
      },
      "newAppInstance(bytes32,address,bytes,bool)": {
        "notice": "Create a new upgradeable instance of `_appId` app linked to the Kernel, setting its code to `_appBase`. `_setDefault ? 'Also sets it as the default app instance.':''`"
      },
      "newAppProxy(address,bytes32)": {
        "notice": "Create a new upgradeable app instance on `_kernel` with identifier `_appId`"
      },
      "newAppProxy(address,bytes32,bytes)": {
        "notice": "Create a new upgradeable app instance on `_kernel` with identifier `_appId` and initialization payload `_initializePayload`"
      },
      "newAppProxyPinned(address,bytes32)": {
        "notice": "Create a new pinned app instance on `_kernel` with identifier `_appId`"
      },
      "newAppProxyPinned(address,bytes32,bytes)": {
        "notice": "Create a new pinned app instance on `_kernel` with identifier `_appId` and initialization payload `_initializePayload`"
      },
      "newPinnedAppInstance(bytes32,address)": {
        "notice": "Create a new non-upgradeable instance of `_appId` app linked to the Kernel, setting its code to `_appBase`."
      },
      "newPinnedAppInstance(bytes32,address,bytes,bool)": {
        "notice": "Create a new non-upgradeable instance of `_appId` app linked to the Kernel, setting its code to `_appBase`. `_setDefault ? 'Also sets it as the default app instance.':''`"
      },
      "setApp(bytes32,bytes32,address)": {
        "notice": "Set the resolving address of `_appId` in namespace `_namespace` to `_app`"
      },
      "transferToVault(address)": {
        "notice": "Send funds to recovery Vault. This contract should never receive funds,        but in case it does, this function allows one to recover them."
      }
    }
  }
}