{"address":"0x4E065c622d584Fbe5D9078C3081840155FA69581","bytecode":"0x608060405234801561001057600080fd5b5060008080526020527fad3228b676f7d3cd4284a5443f17f1962b36e491b30a40b2405849e597ba5fb58054600160a060020a031916331790556105f1806100596000396000f3006080604052600436106100825763ffffffff7c01000000000000000000000000000000000000000000000000000000006000350416630178b8bf811461008757806302571be3146100c857806306ab5923146100e057806314ab90381461011657806316a25cbd1461013b5780631896f70a146101705780635b0fc9c3146101a1575b600080fd5b34801561009357600080fd5b5061009f6004356101d2565b6040805173ffffffffffffffffffffffffffffffffffffffff9092168252519081900360200190f35b3480156100d457600080fd5b5061009f6004356101fd565b3480156100ec57600080fd5b5061011460043560243573ffffffffffffffffffffffffffffffffffffffff60443516610225565b005b34801561012257600080fd5b5061011460043567ffffffffffffffff60243516610311565b34801561014757600080fd5b506101536004356103e7565b6040805167ffffffffffffffff9092168252519081900360200190f35b34801561017c57600080fd5b5061011460043573ffffffffffffffffffffffffffffffffffffffff6024351661041e565b3480156101ad57600080fd5b5061011460043573ffffffffffffffffffffffffffffffffffffffff602435166104f3565b60009081526020819052604090206001015473ffffffffffffffffffffffffffffffffffffffff1690565b60009081526020819052604090205473ffffffffffffffffffffffffffffffffffffffff1690565b600083815260208190526040812054849073ffffffffffffffffffffffffffffffffffffffff16331461025757600080fd5b6040805186815260208082018790528251918290038301822073ffffffffffffffffffffffffffffffffffffffff871683529251929450869288927fce0457fe73731f824cc272376169235128c118b49d344817417c6d108d155e8292908290030190a350600090815260208190526040902080547fffffffffffffffffffffffff00000000000000000000000000000000000000001673ffffffffffffffffffffffffffffffffffffffff929092169190911790555050565b600082815260208190526040902054829073ffffffffffffffffffffffffffffffffffffffff16331461034357600080fd5b6040805167ffffffffffffffff84168152905184917f1d4f9bbfc9cab89d66e1a1562f2233ccbf1308cb4f63de2ead5787adddb8fa68919081900360200190a250600091825260208290526040909120600101805467ffffffffffffffff90921674010000000000000000000000000000000000000000027fffffffff0000000000000000ffffffffffffffffffffffffffffffffffffffff909216919091179055565b60009081526020819052604090206001015474010000000000000000000000000000000000000000900467ffffffffffffffff1690565b600082815260208190526040902054829073ffffffffffffffffffffffffffffffffffffffff16331461045057600080fd5b6040805173ffffffffffffffffffffffffffffffffffffffff84168152905184917f335721b01866dc23fbee8b6b2c7b1e14d6f05c28cd35a2c934239f94095602a0919081900360200190a25060009182526020829052604090912060010180547fffffffffffffffffffffffff00000000000000000000000000000000000000001673ffffffffffffffffffffffffffffffffffffffff909216919091179055565b600082815260208190526040902054829073ffffffffffffffffffffffffffffffffffffffff16331461052557600080fd5b6040805173ffffffffffffffffffffffffffffffffffffffff84168152905184917fd4735d920b0f87494915f556dd9b54c8f309026070caea5c737245152564d266919081900360200190a25060009182526020829052604090912080547fffffffffffffffffffffffff00000000000000000000000000000000000000001673ffffffffffffffffffffffffffffffffffffffff9092169190911790555600a165627a7a72305820fe1b82d3a5c4791aa7672953b075860669cc176546c4b01e0d0419909877aa920029","abi":[{"constant":true,"inputs":[{"name":"node","type":"bytes32"}],"name":"resolver","outputs":[{"name":"","type":"address"}],"payable":false,"stateMutability":"view","type":"function"},{"constant":true,"inputs":[{"name":"node","type":"bytes32"}],"name":"owner","outputs":[{"name":"","type":"address"}],"payable":false,"stateMutability":"view","type":"function"},{"constant":false,"inputs":[{"name":"node","type":"bytes32"},{"name":"label","type":"bytes32"},{"name":"owner","type":"address"}],"name":"setSubnodeOwner","outputs":[],"payable":false,"stateMutability":"nonpayable","type":"function"},{"constant":false,"inputs":[{"name":"node","type":"bytes32"},{"name":"ttl","type":"uint64"}],"name":"setTTL","outputs":[],"payable":false,"stateMutability":"nonpayable","type":"function"},{"constant":true,"inputs":[{"name":"node","type":"bytes32"}],"name":"ttl","outputs":[{"name":"","type":"uint64"}],"payable":false,"stateMutability":"view","type":"function"},{"constant":false,"inputs":[{"name":"node","type":"bytes32"},{"name":"resolver","type":"address"}],"name":"setResolver","outputs":[],"payable":false,"stateMutability":"nonpayable","type":"function"},{"constant":false,"inputs":[{"name":"node","type":"bytes32"},{"name":"owner","type":"address"}],"name":"setOwner","outputs":[],"payable":false,"stateMutability":"nonpayable","type":"function"},{"inputs":[],"payable":false,"stateMutability":"nonpayable","type":"constructor"},{"anonymous":false,"inputs":[{"indexed":true,"name":"_node","type":"bytes32"},{"indexed":true,"name":"_label","type":"bytes32"},{"indexed":false,"name":"_owner","type":"address"}],"name":"NewOwner","type":"event"},{"anonymous":false,"inputs":[{"indexed":true,"name":"_node","type":"bytes32"},{"indexed":false,"name":"_owner","type":"address"}],"name":"Transfer","type":"event"},{"anonymous":false,"inputs":[{"indexed":true,"name":"_node","type":"bytes32"},{"indexed":false,"name":"_resolver","type":"address"}],"name":"NewResolver","type":"event"},{"anonymous":false,"inputs":[{"indexed":true,"name":"_node","type":"bytes32"},{"indexed":false,"name":"_ttl","type":"uint64"}],"name":"NewTTL","type":"event"}]}