{"address":"0x6099327dd7b8BefcBd607453C9029CbE148845a7","bytecode":"0x6080604052620000176401000000006200001d810204565b6200023b565b6200003064010000000062000125810204565b60408051808201909152601881527f494e49545f414c52454144595f494e495449414c495a45440000000000000000602082015290156200010c576040517f08c379a00000000000000000000000000000000000000000000000000000000081526004018080602001828103825283818151815260200191508051906020019080838360005b83811015620000d0578181015183820152602001620000b6565b50505050905090810190601f168015620000fe5780820380516001836020036101000a031916815260200191505b509250505060405180910390fd5b506200012360001964010000000062000154810204565b565b60006200014f60008051602062001fba833981519152640100000000620018436200023382021704565b905090565b6200016764010000000062000125810204565b60408051808201909152601881527f494e49545f414c52454144595f494e495449414c495a454400000000000000006020820152901562000206576040517f08c379a000000000000000000000000000000000000000000000000000000000815260040180806020018281038252838181518152602001915080519060200190808383600083811015620000d0578181015183820152602001620000b6565b506200023060008051602062001fba8339815191528264010000000062001b3f6200023782021704565b50565b5490565b9055565b611d6f806200024b6000396000f3006080604052600436106101115763ffffffff7c01000000000000000000000000000000000000000000000000000000006000350416630803fac081146101165780632914b9bd1461013f57806332f0a3b5146101c15780634c3ba268146101d657806373053410146102ed578063737e7d4f1461038a5780637e7db6e1146103a257806380afdea8146103d05780638129fc1c146103f75780638b3dd7491461040c5780639a6fe50c146104215780639d4941d81461044f578063a1658fad1461047d578063a479e508146104f1578063a7bdf16e14610506578063aa61924a1461056f578063c36af46014610584578063c6d48e0d14610599578063d4aae0c4146105ae578063de4796ed146105c3575b600080fd5b34801561012257600080fd5b5061012b6105d8565b604080519115158252519081900360200190f35b34801561014b57600080fd5b506040805160206004803580820135601f81018490048402850184019095528484526101989436949293602493928401919081908401838280828437509497506106029650505050505050565b6040805173ffffffffffffffffffffffffffffffffffffffff9092168252519081900360200190f35b3480156101cd57600080fd5b5061019861070e565b3480156101e257600080fd5b506040805160608181019092526102199136916004916064919083906003908390839080828437509396506107ad95505050505050565b6040518084606080838360005b8381101561023e578181015183820152602001610226565b505050509050018373ffffffffffffffffffffffffffffffffffffffff1673ffffffffffffffffffffffffffffffffffffffff16815260200180602001828103825283818151815260200191508051906020019080838360005b838110156102b0578181015183820152602001610298565b50505050905090810190601f1680156102dd5780820380516001836020036101000a031916815260200191505b5094505050505060405180910390f35b3480156102f957600080fd5b50604080516060818101909252610388913691600491606491908390600390839083908082843750506040805160208781013589018035601f81018390048302840183018552808452979a893573ffffffffffffffffffffffffffffffffffffffff169a9099909894019650919450908101925081908401838280828437509497506107ec9650505050505050565b005b34801561039657600080fd5b50610219600435610cbf565b3480156103ae57600080fd5b5061012b73ffffffffffffffffffffffffffffffffffffffff60043516610ec0565b3480156103dc57600080fd5b506103e5610ec6565b60408051918252519081900360200190f35b34801561040357600080fd5b50610388610ef6565b34801561041857600080fd5b506103e5610faa565b34801561042d57600080fd5b5061021973ffffffffffffffffffffffffffffffffffffffff60043516610fd5565b34801561045b57600080fd5b5061038873ffffffffffffffffffffffffffffffffffffffff6004351661100f565b34801561048957600080fd5b50604080516020600460443581810135838102808601850190965280855261012b95833573ffffffffffffffffffffffffffffffffffffffff169560248035963696956064959394920192918291850190849080828437509497506113319650505050505050565b3480156104fd57600080fd5b506101986114c1565b34801561051257600080fd5b5060408051606081810190925261012b913691600491606491908390600390839083908082843750506040805160608181019092529497969581810195945092506003915083908390808284375093965061158395505050505050565b34801561057b57600080fd5b506103e5611672565b34801561059057600080fd5b50610219611696565b3480156105a557600080fd5b506103e56116bb565b3480156105ba57600080fd5b506101986116e3565b3480156105cf57600080fd5b5061012b61170e565b6000806105e3610faa565b905080158015906105fb5750806105f861173f565b10155b91505b5090565b600061060c6114c1565b73ffffffffffffffffffffffffffffffffffffffff166304bf2a7f836040518263ffffffff167c01000000000000000000000000000000000000000000000000000000000281526004018080602001828103825283818151815260200191508051906020019080838360005b83811015610690578181015183820152602001610678565b50505050905090810190601f1680156106bd5780820380516001836020036101000a031916815260200191505b5092505050602060405180830381600087803b1580156106dc57600080fd5b505af11580156106f0573d6000803e3d6000fd5b505050506040513d602081101561070657600080fd5b505192915050565b60006107186116e3565b73ffffffffffffffffffffffffffffffffffffffff166332f0a3b56040518163ffffffff167c0100000000000000000000000000000000000000000000000000000000028152600401602060405180830381600087803b15801561077b57600080fd5b505af115801561078f573d6000803e3d6000fd5b505050506040513d60208110156107a557600080fd5b505190505b90565b6107b5611bc2565b600060606107df600260006107c987611743565b8152602081019190915260400160002054610cbf565b9250925092509193909250565b6000806107f7611bc2565b6040805160008082526020820190925281907f1f56cfecd3595a2e6cc1a7e6cb0b20df84cdbd92eff2fee554e70e4e45a9a7d8906108389033908390611331565b60408051808201909152600f81527f4150505f415554485f4641494c454400000000000000000000000000000000006020820152901515610911576040517f08c379a00000000000000000000000000000000000000000000000000000000081526004018080602001828103825283818151815260200191508051906020019080838360005b838110156108d65781810151838201526020016108be565b50505050905090810190601f1680156109035780820380516001836020036101000a031916815260200191505b509250505060405180910390fd5b5087955060016000540394506000851115610a9a57600085815260016020526040808220815160608101928390529095509185916003918390855b82829054906101000a900461ffff1661ffff168152602001906002019060208260010104928301926001038202915080841161094c579050509397505050505073ffffffffffffffffffffffffffffffffffffffff861615156109c757600183015473ffffffffffffffffffffffffffffffffffffffff1695505b600183015473ffffffffffffffffffffffffffffffffffffffff878116911614806109fb57508254895161ffff9182169116115b60408051808201909152601481527f5245504f5f494e56414c49445f56455253494f4e0000000000000000000000006020820152901515610a98576040517f08c379a0000000000000000000000000000000000000000000000000000000008152600401808060200182810382528381815181526020019150805190602001908083836000838110156108d65781810151838201526020016108be565b505b610aa4848a611583565b60408051808201909152601181527f5245504f5f494e56414c49445f42554d500000000000000000000000000000006020820152901515610b41576040517f08c379a0000000000000000000000000000000000000000000000000000000008152600401808060200182810382528381815181526020019150805190602001908083836000838110156108d65781810151838201526020016108be565b506000805460018082018355604080516060810182528d815273ffffffffffffffffffffffffffffffffffffffff8b166020808301919091528183018d905284865292909252909220825191945090610b9d9082906003611be1565b506020828101516001830180547fffffffffffffffffffffffff00000000000000000000000000000000000000001673ffffffffffffffffffffffffffffffffffffffff90921691909117905560408301518051610c019260028501920190611c73565b509050508160026000610c138c611743565b8152602080820192909252604090810160009081209390935573ffffffffffffffffffffffffffffffffffffffff8916835260038252808320859055518481527e3aea8189d1a0aa3ebdb05219cd4c2a663166706e949e9d6e8aa63718ca43fd9285928d92919082019083906060908190849084905b83811015610ca1578181015183820152602001610c89565b505050509050019250505060405180910390a1505050505050505050565b610cc7611bc2565b6000606060008085118015610cdd575060005485105b60408051808201909152601781527f5245504f5f494e4558495354454e545f56455253494f4e0000000000000000006020820152901515610d7a576040517f08c379a0000000000000000000000000000000000000000000000000000000008152600401808060200182810382528381815181526020019150805190602001908083836000838110156108d65781810151838201526020016108be565b5050600084815260016020819052604080832091820154815160608101928390529293849373ffffffffffffffffffffffffffffffffffffffff9092169260028501929185916003918390855b82829054906101000a900461ffff1661ffff1681526020019060020190602082600101049283019260010382029150808411610dc7575050855460408051602060026001851615610100027fffffffffffffffffffffffffffffffffffffffffffffffffffffffffffffffff0190941693909304601f8101849004840282018401909252818152969950879550935085019150839050828015610eab5780601f10610e8057610100808354040283529160200191610eab565b820191906000526020600020905b815481529060010190602001808311610e8e57829003601f168201915b50505050509050935093509350509193909250565b50600190565b6000610ef17fd625496217aa6a3453eecb9c3489dc5a53e6c67b444329ea2b2cbc9ff547639b611843565b905090565b610efe610faa565b60408051808201909152601881527f494e49545f414c52454144595f494e495449414c495a4544000000000000000060208201529015610f9a576040517f08c379a0000000000000000000000000000000000000000000000000000000008152600401808060200182810382528381815181526020019150805190602001908083836000838110156108d65781810151838201526020016108be565b50610fa3611847565b6001600055565b6000610ef17febb05b386a8d34882b8711d156f463690983dc47815980fb82aeeff1aa43579e611843565b610fdd611bc2565b73ffffffffffffffffffffffffffffffffffffffff82166000908152600360205260408120546060906107df90610cbf565b600080600061101d84610ec0565b60408051808201909152601281527f5245434f5645525f444953414c4c4f574544000000000000000000000000000060208201529015156110ba576040517f08c379a0000000000000000000000000000000000000000000000000000000008152600401808060200182810382528381815181526020019150805190602001908083836000838110156108d65781810151838201526020016108be565b506110c361070e565b92506110ce8361192a565b60408051808201909152601a81527f5245434f5645525f5641554c545f4e4f545f434f4e5452414354000000000000602082015290151561116b576040517f08c379a0000000000000000000000000000000000000000000000000000000008152600401808060200182810382528381815181526020019150805190602001908083836000838110156108d65781810151838201526020016108be565b5073ffffffffffffffffffffffffffffffffffffffff841615156111d6576040513031925073ffffffffffffffffffffffffffffffffffffffff84169083156108fc029084906000818181858888f193505050501580156111d0573d6000803e3d6000fd5b506112c6565b50826111fe73ffffffffffffffffffffffffffffffffffffffff82163063ffffffff61196416565b915061122773ffffffffffffffffffffffffffffffffffffffff8216848463ffffffff611a9d16565b60408051808201909152601d81527f5245434f5645525f544f4b454e5f5452414e534645525f4641494c454400000060208201529015156112c4576040517f08c379a0000000000000000000000000000000000000000000000000000000008152600401808060200182810382528381815181526020019150805190602001908083836000838110156108d65781810151838201526020016108be565b505b8373ffffffffffffffffffffffffffffffffffffffff168373ffffffffffffffffffffffffffffffffffffffff167f596caf56044b55fb8c4ca640089bbc2b63cae3e978b851f5745cbb7c5b288e02846040518082815260200191505060405180910390a350505050565b60008061133c6105d8565b151561134b57600091506114b9565b6113536116e3565b905073ffffffffffffffffffffffffffffffffffffffff8116151561137b57600091506114b9565b8073ffffffffffffffffffffffffffffffffffffffff1663fdef91068630876113a388611b35565b6040517c010000000000000000000000000000000000000000000000000000000063ffffffff871602815273ffffffffffffffffffffffffffffffffffffffff808616600483019081529085166024830152604482018490526080606483019081528351608484015283519192909160a490910190602085019080838360005b8381101561143b578181015183820152602001611423565b50505050905090810190601f1680156114685780820380516001836020036101000a031916815260200191505b5095505050505050602060405180830381600087803b15801561148a57600080fd5b505af115801561149e573d6000803e3d6000fd5b505050506040513d60208110156114b457600080fd5b505191505b509392505050565b6000806114cc6116e3565b604080517fbe00bbd80000000000000000000000000000000000000000000000000000000081527fd6f028ca0e8edb4a8c9757ca4fdccab25fa1e0317da1188108f7d2dee14902fb60048201527fddbcfd564f642ab5627cf68b9b7d374fb4f8a36e941a75d89c87998cef03bd616024820152905173ffffffffffffffffffffffffffffffffffffffff929092169163be00bbd8916044808201926020929091908290030181600087803b1580156106dc57600080fd5b600080805b60038110156116665781156115bf578381600381106115a357fe5b602002015161ffff16156115ba576000925061166a565b61165e565b8481600381106115cb57fe5b602002015161ffff168482600381106115e057fe5b602002015161ffff161461165e578381600381106115fa57fe5b602002015161ffff1685826003811061160f57fe5b602002015161ffff16118061164b575084816003811061162b57fe5b602002015184826003811061163c57fe5b60200201510361ffff16600114155b15611659576000925061166a565b600191505b600101611588565b8192505b505092915050565b7f1f56cfecd3595a2e6cc1a7e6cb0b20df84cdbd92eff2fee554e70e4e45a9a7d881565b61169e611bc2565b600060606116b0600160005403610cbf565b925092509250909192565b6000547fffffffffffffffffffffffffffffffffffffffffffffffffffffffffffffffff0190565b6000610ef17f4172f0f7d2289153072b0a6ca36959e0cbe2efc3afe50fc81636caa96338137b611843565b60007fffffffffffffffffffffffffffffffffffffffffffffffffffffffffffffffff611739610faa565b14905090565b4390565b805160208083015160408085015181517e0100000000000000000000000000000000000000000000000000000000000061ffff9687168102828701529386168402602282015294169091026024840152805160068185030181526026909301908190528251600093928291908401908083835b602083106117f357805182527fffffffffffffffffffffffffffffffffffffffffffffffffffffffffffffffe090920191602091820191016117b6565b5181516020939093036101000a7fffffffffffffffffffffffffffffffffffffffffffffffffffffffffffffffff0180199091169216919091179052604051920182900390912095945050505050565b5490565b61184f610faa565b60408051808201909152601881527f494e49545f414c52454144595f494e495449414c495a45440000000000000000602082015290156118eb576040517f08c379a0000000000000000000000000000000000000000000000000000000008152600401808060200182810382528381815181526020019150805190602001908083836000838110156108d65781810151838201526020016108be565b506119246118f761173f565b7febb05b386a8d34882b8711d156f463690983dc47815980fb82aeeff1aa43579e9063ffffffff611b3f16565b565b5490565b60008073ffffffffffffffffffffffffffffffffffffffff83161515611953576000915061195e565b823b90506000811191505b50919050565b6040805173ffffffffffffffffffffffffffffffffffffffff83166024808301919091528251808303909101815260449091019091526020810180517bffffffffffffffffffffffffffffffffffffffffffffffffffffffff167f70a082310000000000000000000000000000000000000000000000000000000017905260009081806119f18684611b43565b60408051808201909152601c81527f534146455f4552435f32305f42414c414e43455f52455645525445440000000060208201529193509150821515611a93576040517f08c379a0000000000000000000000000000000000000000000000000000000008152600401808060200182810382528381815181526020019150805190602001908083836000838110156108d65781810151838201526020016108be565b5095945050505050565b6040805173ffffffffffffffffffffffffffffffffffffffff8416602482015260448082018490528251808303909101815260649091019091526020810180517bffffffffffffffffffffffffffffffffffffffffffffffffffffffff167fa9059cbb00000000000000000000000000000000000000000000000000000000179052600090611b2c8582611b74565b95945050505050565b8051602002815290565b9055565b6000806000806040516020818751602089018a5afa92506000831115611b6857805191505b50909590945092505050565b6000806040516020818551602087016000895af16000811115611bb8573d8015611ba55760208114611bae57611bb6565b60019350611bb6565b600183511493505b505b5090949350505050565b6060604051908101604052806003906020820280388339509192915050565b600183019183908215611c675791602002820160005b83821115611c3757835183826101000a81548161ffff021916908361ffff1602179055509260200192600201602081600101049283019260010302611bf7565b8015611c655782816101000a81549061ffff0219169055600201602081600101049283019260010302611c37565b505b506105fe929150611ced565b828054600181600116156101000203166002900490600052602060002090601f016020900481019282601f10611cb457805160ff1916838001178555611ce1565b82800160010185558215611ce1579182015b82811115611ce1578251825591602001919060010190611cc6565b506105fe929150611d29565b6107aa91905b808211156105fe5780547fffffffffffffffffffffffffffffffffffffffffffffffffffffffffffff0000168155600101611cf3565b6107aa91905b808211156105fe5760008155600101611d2f5600a165627a7a72305820ba74b9dffbfbb12ffb5b0249edcb95c9dc1be4280dc752d0e01a71a3080a1ccb0029ebb05b386a8d34882b8711d156f463690983dc47815980fb82aeeff1aa43579e","abi":[{"constant":true,"inputs":[],"name":"hasInitialized","outputs":[{"name":"","type":"bool"}],"payable":false,"stateMutability":"view","type":"function"},{"constant":true,"inputs":[{"name":"_script","type":"bytes"}],"name":"getEVMScriptExecutor","outputs":[{"name":"","type":"address"}],"payable":false,"stateMutability":"view","type":"function"},{"constant":true,"inputs":[],"name":"getRecoveryVault","outputs":[{"name":"","type":"address"}],"payable":false,"stateMutability":"view","type":"function"},{"constant":true,"inputs":[{"name":"_semanticVersion","type":"uint16[3]"}],"name":"getBySemanticVersion","outputs":[{"name":"semanticVersion","type":"uint16[3]"},{"name":"contractAddress","type":"address"},{"name":"contentURI","type":"bytes"}],"payable":false,"stateMutability":"view","type":"function"},{"constant":false,"inputs":[{"name":"_newSemanticVersion","type":"uint16[3]"},{"name":"_contractAddress","type":"address"},{"name":"_contentURI","type":"bytes"}],"name":"newVersion","outputs":[],"payable":false,"stateMutability":"nonpayable","type":"function"},{"constant":true,"inputs":[{"name":"_versionId","type":"uint256"}],"name":"getByVersionId","outputs":[{"name":"semanticVersion","type":"uint16[3]"},{"name":"contractAddress","type":"address"},{"name":"contentURI","type":"bytes"}],"payable":false,"stateMutability":"view","type":"function"},{"constant":true,"inputs":[{"name":"token","type":"address"}],"name":"allowRecoverability","outputs":[{"name":"","type":"bool"}],"payable":false,"stateMutability":"view","type":"function"},{"constant":true,"inputs":[],"name":"appId","outputs":[{"name":"","type":"bytes32"}],"payable":false,"stateMutability":"view","type":"function"},{"constant":false,"inputs":[],"name":"initialize","outputs":[],"payable":false,"stateMutability":"nonpayable","type":"function"},{"constant":true,"inputs":[],"name":"getInitializationBlock","outputs":[{"name":"","type":"uint256"}],"payable":false,"stateMutability":"view","type":"function"},{"constant":true,"inputs":[{"name":"_contractAddress","type":"address"}],"name":"getLatestForContractAddress","outputs":[{"name":"semanticVersion","type":"uint16[3]"},{"name":"contractAddress","type":"address"},{"name":"contentURI","type":"bytes"}],"payable":false,"stateMutability":"view","type":"function"},{"constant":false,"inputs":[{"name":"_token","type":"address"}],"name":"transferToVault","outputs":[],"payable":false,"stateMutability":"nonpayable","type":"function"},{"constant":true,"inputs":[{"name":"_sender","type":"address"},{"name":"_role","type":"bytes32"},{"name":"_params","type":"uint256[]"}],"name":"canPerform","outputs":[{"name":"","type":"bool"}],"payable":false,"stateMutability":"view","type":"function"},{"constant":true,"inputs":[],"name":"getEVMScriptRegistry","outputs":[{"name":"","type":"address"}],"payable":false,"stateMutability":"view","type":"function"},{"constant":true,"inputs":[{"name":"_oldVersion","type":"uint16[3]"},{"name":"_newVersion","type":"uint16[3]"}],"name":"isValidBump","outputs":[{"name":"","type":"bool"}],"payable":false,"stateMutability":"pure","type":"function"},{"constant":true,"inputs":[],"name":"CREATE_VERSION_ROLE","outputs":[{"name":"","type":"bytes32"}],"payable":false,"stateMutability":"view","type":"function"},{"constant":true,"inputs":[],"name":"getLatest","outputs":[{"name":"semanticVersion","type":"uint16[3]"},{"name":"contractAddress","type":"address"},{"name":"contentURI","type":"bytes"}],"payable":false,"stateMutability":"view","type":"function"},{"constant":true,"inputs":[],"name":"getVersionsCount","outputs":[{"name":"","type":"uint256"}],"payable":false,"stateMutability":"view","type":"function"},{"constant":true,"inputs":[],"name":"kernel","outputs":[{"name":"","type":"address"}],"payable":false,"stateMutability":"view","type":"function"},{"constant":true,"inputs":[],"name":"isPetrified","outputs":[{"name":"","type":"bool"}],"payable":false,"stateMutability":"view","type":"function"},{"anonymous":false,"inputs":[{"indexed":false,"name":"versionId","type":"uint256"},{"indexed":false,"name":"semanticVersion","type":"uint16[3]"}],"name":"NewVersion","type":"event"},{"anonymous":false,"inputs":[{"indexed":true,"name":"executor","type":"address"},{"indexed":false,"name":"script","type":"bytes"},{"indexed":false,"name":"input","type":"bytes"},{"indexed":false,"name":"returnData","type":"bytes"}],"name":"ScriptResult","type":"event"},{"anonymous":false,"inputs":[{"indexed":true,"name":"vault","type":"address"},{"indexed":true,"name":"token","type":"address"},{"indexed":false,"name":"amount","type":"uint256"}],"name":"RecoverToVault","type":"event"}]}