{
  "address": "0x414bdD3afCAf4777D0F89dB3F1936C90c583199d",
  "abi": [
    {
      "constant": true,
      "inputs": [],
      "name": "hasInitialized",
      "outputs": [
        {
          "name": "",
          "type": "bool"
        }
      ],
      "payable": false,
      "stateMutability": "view",
      "type": "function"
    },
    {
      "constant": false,
      "inputs": [
        {
          "name": "_app",
          "type": "address"
        },
        {
          "name": "_role",
          "type": "bytes32"
        }
      ],
      "name": "createBurnedPermission",
      "outputs": [],
      "payable": false,
      "stateMutability": "nonpayable",
      "type": "function"
    },
    {
      "constant": false,
      "inputs": [
        {
          "name": "_app",
          "type": "address"
        },
        {
          "name": "_role",
          "type": "bytes32"
        }
      ],
      "name": "burnPermissionManager",
      "outputs": [],
      "payable": false,
      "stateMutability": "nonpayable",
      "type": "function"
    },
    {
      "constant": false,
      "inputs": [
        {
          "name": "_entity",
          "type": "address"
        },
        {
          "name": "_app",
          "type": "address"
        },
        {
          "name": "_role",
          "type": "bytes32"
        }
      ],
      "name": "grantPermission",
      "outputs": [],
      "payable": false,
      "stateMutability": "nonpayable",
      "type": "function"
    },
    {
      "constant": true,
      "inputs": [
        {
          "name": "_entity",
          "type": "address"
        },
        {
          "name": "_app",
          "type": "address"
        },
        {
          "name": "_role",
          "type": "bytes32"
        }
      ],
      "name": "getPermissionParamsLength",
      "outputs": [
        {
          "name": "",
          "type": "uint256"
        }
      ],
      "payable": false,
      "stateMutability": "view",
      "type": "function"
    },
    {
      "constant": true,
      "inputs": [
        {
          "name": "_paramsHash",
          "type": "bytes32"
        },
        {
          "name": "_who",
          "type": "address"
        },
        {
          "name": "_where",
          "type": "address"
        },
        {
          "name": "_what",
          "type": "bytes32"
        },
        {
          "name": "_how",
          "type": "uint256[]"
        }
      ],
      "name": "evalParams",
      "outputs": [
        {
          "name": "",
          "type": "bool"
        }
      ],
      "payable": false,
      "stateMutability": "view",
      "type": "function"
    },
    {
      "constant": true,
      "inputs": [],
      "name": "NO_PERMISSION",
      "outputs": [
        {
          "name": "",
          "type": "bytes32"
        }
      ],
      "payable": false,
      "stateMutability": "view",
      "type": "function"
    },
    {
      "constant": true,
      "inputs": [
        {
          "name": "_script",
          "type": "bytes"
        }
      ],
      "name": "getEVMScriptExecutor",
      "outputs": [
        {
          "name": "",
          "type": "address"
        }
      ],
      "payable": false,
      "stateMutability": "view",
      "type": "function"
    },
    {
      "constant": true,
      "inputs": [],
      "name": "getRecoveryVault",
      "outputs": [
        {
          "name": "",
          "type": "address"
        }
      ],
      "payable": false,
      "stateMutability": "view",
      "type": "function"
    },
    {
      "constant": true,
      "inputs": [],
      "name": "CREATE_PERMISSIONS_ROLE",
      "outputs": [
        {
          "name": "",
          "type": "bytes32"
        }
      ],
      "payable": false,
      "stateMutability": "view",
      "type": "function"
    },
    {
      "constant": false,
      "inputs": [
        {
          "name": "_entity",
          "type": "address"
        },
        {
          "name": "_app",
          "type": "address"
        },
        {
          "name": "_role",
          "type": "bytes32"
        },
        {
          "name": "_params",
          "type": "uint256[]"
        }
      ],
      "name": "grantPermissionP",
      "outputs": [],
      "payable": false,
      "stateMutability": "nonpayable",
      "type": "function"
    },
    {
      "constant": true,
      "inputs": [
        {
          "name": "_who",
          "type": "address"
        },
        {
          "name": "_where",
          "type": "address"
        },
        {
          "name": "_what",
          "type": "bytes32"
        }
      ],
      "name": "hasPermission",
      "outputs": [
        {
          "name": "",
          "type": "bool"
        }
      ],
      "payable": false,
      "stateMutability": "view",
      "type": "function"
    },
    {
      "constant": true,
      "inputs": [
        {
          "name": "token",
          "type": "address"
        }
      ],
      "name": "allowRecoverability",
      "outputs": [
        {
          "name": "",
          "type": "bool"
        }
      ],
      "payable": false,
      "stateMutability": "view",
      "type": "function"
    },
    {
      "constant": true,
      "inputs": [],
      "name": "appId",
      "outputs": [
        {
          "name": "",
          "type": "bytes32"
        }
      ],
      "payable": false,
      "stateMutability": "view",
      "type": "function"
    },
    {
      "constant": true,
      "inputs": [],
      "name": "getInitializationBlock",
      "outputs": [
        {
          "name": "",
          "type": "uint256"
        }
      ],
      "payable": false,
      "stateMutability": "view",
      "type": "function"
    },
    {
      "constant": false,
      "inputs": [
        {
          "name": "_entity",
          "type": "address"
        },
        {
          "name": "_app",
          "type": "address"
        },
        {
          "name": "_role",
          "type": "bytes32"
        }
      ],
      "name": "revokePermission",
      "outputs": [],
      "payable": false,
      "stateMutability": "nonpayable",
      "type": "function"
    },
    {
      "constant": false,
      "inputs": [
        {
          "name": "_token",
          "type": "address"
        }
      ],
      "name": "transferToVault",
      "outputs": [],
      "payable": false,
      "stateMutability": "nonpayable",
      "type": "function"
    },
    {
      "constant": true,
      "inputs": [
        {
          "name": "_entity",
          "type": "address"
        },
        {
          "name": "_app",
          "type": "address"
        },
        {
          "name": "_role",
          "type": "bytes32"
        },
        {
          "name": "_index",
          "type": "uint256"
        }
      ],
      "name": "getPermissionParam",
      "outputs": [
        {
          "name": "",
          "type": "uint8"
        },
        {
          "name": "",
          "type": "uint8"
        },
        {
          "name": "",
          "type": "uint240"
        }
      ],
      "payable": false,
      "stateMutability": "view",
      "type": "function"
    },
    {
      "constant": true,
      "inputs": [
        {
          "name": "_sender",
          "type": "address"
        },
        {
          "name": "_role",
          "type": "bytes32"
        },
        {
          "name": "_params",
          "type": "uint256[]"
        }
      ],
      "name": "canPerform",
      "outputs": [
        {
          "name": "",
          "type": "bool"
        }
      ],
      "payable": false,
      "stateMutability": "view",
      "type": "function"
    },
    {
      "constant": true,
      "inputs": [],
      "name": "getEVMScriptRegistry",
      "outputs": [
        {
          "name": "",
          "type": "address"
        }
      ],
      "payable": false,
      "stateMutability": "view",
      "type": "function"
    },
    {
      "constant": true,
      "inputs": [],
      "name": "ANY_ENTITY",
      "outputs": [
        {
          "name": "",
          "type": "address"
        }
      ],
      "payable": false,
      "stateMutability": "view",
      "type": "function"
    },
    {
      "constant": false,
      "inputs": [
        {
          "name": "_app",
          "type": "address"
        },
        {
          "name": "_role",
          "type": "bytes32"
        }
      ],
      "name": "removePermissionManager",
      "outputs": [],
      "payable": false,
      "stateMutability": "nonpayable",
      "type": "function"
    },
    {
      "constant": false,
      "inputs": [
        {
          "name": "_newManager",
          "type": "address"
        },
        {
          "name": "_app",
          "type": "address"
        },
        {
          "name": "_role",
          "type": "bytes32"
        }
      ],
      "name": "setPermissionManager",
      "outputs": [],
      "payable": false,
      "stateMutability": "nonpayable",
      "type": "function"
    },
    {
      "constant": true,
      "inputs": [
        {
          "name": "_app",
          "type": "address"
        },
        {
          "name": "_role",
          "type": "bytes32"
        }
      ],
      "name": "getPermissionManager",
      "outputs": [
        {
          "name": "",
          "type": "address"
        }
      ],
      "payable": false,
      "stateMutability": "view",
      "type": "function"
    },
    {
      "constant": false,
      "inputs": [
        {
          "name": "_entity",
          "type": "address"
        },
        {
          "name": "_app",
          "type": "address"
        },
        {
          "name": "_role",
          "type": "bytes32"
        },
        {
          "name": "_manager",
          "type": "address"
        }
      ],
      "name": "createPermission",
      "outputs": [],
      "payable": false,
      "stateMutability": "nonpayable",
      "type": "function"
    },
    {
      "constant": false,
      "inputs": [
        {
          "name": "_permissionsCreator",
          "type": "address"
        }
      ],
      "name": "initialize",
      "outputs": [],
      "payable": false,
      "stateMutability": "nonpayable",
      "type": "function"
    },
    {
      "constant": true,
      "inputs": [],
      "name": "EMPTY_PARAM_HASH",
      "outputs": [
        {
          "name": "",
          "type": "bytes32"
        }
      ],
      "payable": false,
      "stateMutability": "view",
      "type": "function"
    },
    {
      "constant": true,
      "inputs": [],
      "name": "kernel",
      "outputs": [
        {
          "name": "",
          "type": "address"
        }
      ],
      "payable": false,
      "stateMutability": "view",
      "type": "function"
    },
    {
      "constant": true,
      "inputs": [],
      "name": "isPetrified",
      "outputs": [
        {
          "name": "",
          "type": "bool"
        }
      ],
      "payable": false,
      "stateMutability": "view",
      "type": "function"
    },
    {
      "constant": true,
      "inputs": [],
      "name": "BURN_ENTITY",
      "outputs": [
        {
          "name": "",
          "type": "address"
        }
      ],
      "payable": false,
      "stateMutability": "view",
      "type": "function"
    },
    {
      "constant": true,
      "inputs": [
        {
          "name": "_who",
          "type": "address"
        },
        {
          "name": "_where",
          "type": "address"
        },
        {
          "name": "_what",
          "type": "bytes32"
        },
        {
          "name": "_how",
          "type": "uint256[]"
        }
      ],
      "name": "hasPermission",
      "outputs": [
        {
          "name": "",
          "type": "bool"
        }
      ],
      "payable": false,
      "stateMutability": "view",
      "type": "function"
    },
    {
      "constant": true,
      "inputs": [
        {
          "name": "_who",
          "type": "address"
        },
        {
          "name": "_where",
          "type": "address"
        },
        {
          "name": "_what",
          "type": "bytes32"
        },
        {
          "name": "_how",
          "type": "bytes"
        }
      ],
      "name": "hasPermission",
      "outputs": [
        {
          "name": "",
          "type": "bool"
        }
      ],
      "payable": false,
      "stateMutability": "view",
      "type": "function"
    },
    {
      "anonymous": false,
      "inputs": [
        {
          "indexed": true,
          "name": "entity",
          "type": "address"
        },
        {
          "indexed": true,
          "name": "app",
          "type": "address"
        },
        {
          "indexed": true,
          "name": "role",
          "type": "bytes32"
        },
        {
          "indexed": false,
          "name": "allowed",
          "type": "bool"
        }
      ],
      "name": "SetPermission",
      "type": "event"
    },
    {
      "anonymous": false,
      "inputs": [
        {
          "indexed": true,
          "name": "entity",
          "type": "address"
        },
        {
          "indexed": true,
          "name": "app",
          "type": "address"
        },
        {
          "indexed": true,
          "name": "role",
          "type": "bytes32"
        },
        {
          "indexed": false,
          "name": "paramsHash",
          "type": "bytes32"
        }
      ],
      "name": "SetPermissionParams",
      "type": "event"
    },
    {
      "anonymous": false,
      "inputs": [
        {
          "indexed": true,
          "name": "app",
          "type": "address"
        },
        {
          "indexed": true,
          "name": "role",
          "type": "bytes32"
        },
        {
          "indexed": true,
          "name": "manager",
          "type": "address"
        }
      ],
      "name": "ChangePermissionManager",
      "type": "event"
    },
    {
      "anonymous": false,
      "inputs": [
        {
          "indexed": true,
          "name": "executor",
          "type": "address"
        },
        {
          "indexed": false,
          "name": "script",
          "type": "bytes"
        },
        {
          "indexed": false,
          "name": "input",
          "type": "bytes"
        },
        {
          "indexed": false,
          "name": "returnData",
          "type": "bytes"
        }
      ],
      "name": "ScriptResult",
      "type": "event"
    },
    {
      "anonymous": false,
      "inputs": [
        {
          "indexed": true,
          "name": "vault",
          "type": "address"
        },
        {
          "indexed": true,
          "name": "token",
          "type": "address"
        },
        {
          "indexed": false,
          "name": "amount",
          "type": "uint256"
        }
      ],
      "name": "RecoverToVault",
      "type": "event"
    }
  ],
  "transactionHash": "0x4f2f812e6d7602215cf3064ea005d0ba74e37ec42de6476c7502f49b309605bf",
  "args": [],
  "solcInputHash": "ff4c8d322a70f7dfdac93ed09c96ea16",
  "bytecode": "0x6080604052620000176401000000006200001d810204565b6200023b565b6200003064010000000062000125810204565b60408051808201909152601881527f494e49545f414c52454144595f494e495449414c495a45440000000000000000602082015290156200010c576040517f08c379a00000000000000000000000000000000000000000000000000000000081526004018080602001828103825283818151815260200191508051906020019080838360005b83811015620000d0578181015183820152602001620000b6565b50505050905090810190601f168015620000fe5780820380516001836020036101000a031916815260200191505b509250505060405180910390fd5b506200012360001964010000000062000154810204565b565b60006200014f6000805160206200306b833981519152640100000000620024116200023382021704565b905090565b6200016764010000000062000125810204565b60408051808201909152601881527f494e49545f414c52454144595f494e495449414c495a454400000000000000006020820152901562000206576040517f08c379a000000000000000000000000000000000000000000000000000000000815260040180806020018281038252838181518152602001915080519060200190808383600083811015620000d0578181015183820152602001620000b6565b50620002306000805160206200306b8339815191528264010000000062002db76200023782021704565b50565b5490565b9055565b612e20806200024b6000396000f3006080604052600436106101955763ffffffff7c01000000000000000000000000000000000000000000000000000000006000350416630803fac0811461019a5780630808343e146101c357806309699ff5146101f65780630a8ed3db1461022757806315949ed71461025e5780631b5e75be146102a75780631d63ff2b146103295780632914b9bd1461033e57806332f0a3b5146103c05780633d6ab68f146103d55780636815c992146103ea5780636d6712d81461046b5780637e7db6e1146104a257806380afdea8146104d05780638b3dd749146104e55780639d0effdb146104fa5780639d4941d814610531578063a03c58321461055f578063a1658fad146105dd578063a479e50814610651578063a5ed8bf814610666578063a885508a1461067b578063afd925df146106ac578063b1905727146106e3578063be03847814610714578063c4d66de814610752578063c513f66e14610780578063d4aae0c414610795578063de4796ed146107aa578063f516bc0e146107bf578063f520b58d146107d4578063fdef910614610855575b600080fd5b3480156101a657600080fd5b506101af6108d1565b604080519115158252519081900360200190f35b3480156101cf57600080fd5b506101f473ffffffffffffffffffffffffffffffffffffffff600435166024356108fa565b005b34801561020257600080fd5b506101f473ffffffffffffffffffffffffffffffffffffffff60043516602435610aee565b34801561023357600080fd5b506101f473ffffffffffffffffffffffffffffffffffffffff60043581169060243516604435610bc0565b34801561026a57600080fd5b5061029573ffffffffffffffffffffffffffffffffffffffff60043581169060243516604435610bfc565b60408051918252519081900360200190f35b3480156102b357600080fd5b5060408051602060046084358181013583810280860185019096528085526101af958335956024803573ffffffffffffffffffffffffffffffffffffffff9081169760443590911696606435963696919560a495949091019282919085019084908082843750949750610c3e9650505050505050565b34801561033557600080fd5b50610295610c8b565b34801561034a57600080fd5b506040805160206004803580820135601f8101849004840285018401909552848452610397943694929360249392840191908190840183828082843750949750610c909650505050505050565b6040805173ffffffffffffffffffffffffffffffffffffffff9092168252519081900360200190f35b3480156103cc57600080fd5b50610397610d9c565b3480156103e157600080fd5b50610295610e3a565b3480156103f657600080fd5b5060408051606435600481810135602081810285810182019096528185526101f49573ffffffffffffffffffffffffffffffffffffffff84358116966024803590921696604435963696909560849593949290920192909182919085019084908082843750949750610e5e9650505050505050565b34801561047757600080fd5b506101af73ffffffffffffffffffffffffffffffffffffffff60043581169060243516604435610f6f565b3480156104ae57600080fd5b506101af73ffffffffffffffffffffffffffffffffffffffff60043516610f96565b3480156104dc57600080fd5b50610295610f9c565b3480156104f157600080fd5b50610295610fcc565b34801561050657600080fd5b506101f473ffffffffffffffffffffffffffffffffffffffff60043581169060243516604435610ff7565b34801561053d57600080fd5b506101f473ffffffffffffffffffffffffffffffffffffffff600435166110c4565b34801561056b57600080fd5b5061059973ffffffffffffffffffffffffffffffffffffffff600435811690602435166044356064356113e6565b6040805160ff94851681529290931660208301527dffffffffffffffffffffffffffffffffffffffffffffffffffffffffffff168183015290519081900360600190f35b3480156105e957600080fd5b5060408051602060046044358181013583810280860185019096528085526101af95833573ffffffffffffffffffffffffffffffffffffffff1695602480359636969560649593949201929182918501908490808284375094975061147b9650505050505050565b34801561065d57600080fd5b50610397611609565b34801561067257600080fd5b506103976116cb565b34801561068757600080fd5b506101f473ffffffffffffffffffffffffffffffffffffffff600435166024356116d1565b3480156106b857600080fd5b506101f473ffffffffffffffffffffffffffffffffffffffff6004358116906024351660443561179d565b3480156106ef57600080fd5b5061039773ffffffffffffffffffffffffffffffffffffffff60043516602435611868565b34801561072057600080fd5b506101f473ffffffffffffffffffffffffffffffffffffffff60043581169060243581169060443590606435166118a6565b34801561075e57600080fd5b506101f473ffffffffffffffffffffffffffffffffffffffff60043516611a55565b34801561078c57600080fd5b50610295611bed565b3480156107a157600080fd5b50610397611c11565b3480156107b657600080fd5b506101af611c3c565b3480156107cb57600080fd5b50610397611c4f565b3480156107e057600080fd5b5060408051606435600481810135602081810285810182019096528185526101af9573ffffffffffffffffffffffffffffffffffffffff84358116966024803590921696604435963696909560849593949290920192909182919085019084908082843750949750611c549650505050505050565b34801561086157600080fd5b50604080516020601f6064356004818101359283018490048402850184019095528184526101af9473ffffffffffffffffffffffffffffffffffffffff8135811695602480359092169560443595369560849401918190840183828082843750949750611cf89650505050505050565b6000806108dc610fcc565b905080158015906108f45750806108f1611d0e565b10155b91505090565b604080516000808252602082019092527f0b719b33c83b8e5d300c521cb8b54ae9bd933996a14bef8c2f4e0285d2d2400a9161093c9133918491905b5061147b565b60408051808201909152600f81527f4150505f415554485f4641494c454400000000000000000000000000000000006020820152901515610a15576040517f08c379a00000000000000000000000000000000000000000000000000000000081526004018080602001828103825283818151815260200191508051906020019080838360005b838110156109da5781810151838201526020016109c2565b50505050905090810190601f168015610a075780820380516001836020036101000a031916815260200191505b509250505060405180910390fd5b5082826000610a248383611868565b73ffffffffffffffffffffffffffffffffffffffff16146040805190810160405280601481526020017f41434c5f4558495354454e545f4d414e41474552000000000000000000000000815250901515610ada576040517f08c379a0000000000000000000000000000000000000000000000000000000008152600401808060200182810382528381815181526020019150805190602001908083836000838110156109da5781810151838201526020016109c2565b50610ae760018686611d12565b5050505050565b8181610afa8282611868565b60408051808201909152601381527f41434c5f415554485f4e4f5f4d414e414745520000000000000000000000000060208201529073ffffffffffffffffffffffffffffffffffffffff163314610bad576040517f08c379a0000000000000000000000000000000000000000000000000000000008152600401808060200182810382528381815181526020019150805190602001908083836000838110156109da5781810151838201526020016109c2565b50610bba60018585611d12565b50505050565b610bf78383836000604051908082528060200260200182016040528015610bf1578160200160208202803883390190505b50610e5e565b505050565b600060016000806000610c10888888611da9565b81526020808201929092526040908101600090812054845291830193909352910190205490505b9392505050565b60007f290decd9548b62a8d60345a988386fc84ba6bc95484008f6362f93160ef3e563861415610c7057506001610c82565b610c7f86600087878787611ea8565b90505b95945050505050565b600081565b6000610c9a611609565b73ffffffffffffffffffffffffffffffffffffffff166304bf2a7f836040518263ffffffff167c01000000000000000000000000000000000000000000000000000000000281526004018080602001828103825283818151815260200191508051906020019080838360005b83811015610d1e578181015183820152602001610d06565b50505050905090810190601f168015610d4b5780820380516001836020036101000a031916815260200191505b5092505050602060405180830381600087803b158015610d6a57600080fd5b505af1158015610d7e573d6000803e3d6000fd5b505050506040513d6020811015610d9457600080fd5b505192915050565b6000610da6611c11565b73ffffffffffffffffffffffffffffffffffffffff166332f0a3b56040518163ffffffff167c0100000000000000000000000000000000000000000000000000000000028152600401602060405180830381600087803b158015610e0957600080fd5b505af1158015610e1d573d6000803e3d6000fd5b505050506040513d6020811015610e3357600080fd5b5051905090565b7f0b719b33c83b8e5d300c521cb8b54ae9bd933996a14bef8c2f4e0285d2d2400a81565b60008383610e6c8282611868565b60408051808201909152601381527f41434c5f415554485f4e4f5f4d414e414745520000000000000000000000000060208201529073ffffffffffffffffffffffffffffffffffffffff163314610f1f576040517f08c379a0000000000000000000000000000000000000000000000000000000008152600401808060200182810382528381815181526020019150805190602001908083836000838110156109da5781810151838201526020016109c2565b506000845111610f4f577f290decd9548b62a8d60345a988386fc84ba6bc95484008f6362f93160ef3e563610f58565b610f58846120f1565b9250610f6687878786612303565b50505050505050565b60408051600080825260208201909252610f8b85858584611c54565b91505b509392505050565b50600190565b6000610fc77fd625496217aa6a3453eecb9c3489dc5a53e6c67b444329ea2b2cbc9ff547639b612411565b905090565b6000610fc77febb05b386a8d34882b8711d156f463690983dc47815980fb82aeeff1aa43579e612411565b81816110038282611868565b60408051808201909152601381527f41434c5f415554485f4e4f5f4d414e414745520000000000000000000000000060208201529073ffffffffffffffffffffffffffffffffffffffff1633146110b6576040517f08c379a0000000000000000000000000000000000000000000000000000000008152600401808060200182810382528381815181526020019150805190602001908083836000838110156109da5781810151838201526020016109c2565b50610ae78585856000612303565b60008060006110d284610f96565b60408051808201909152601281527f5245434f5645525f444953414c4c4f5745440000000000000000000000000000602082015290151561116f576040517f08c379a0000000000000000000000000000000000000000000000000000000008152600401808060200182810382528381815181526020019150805190602001908083836000838110156109da5781810151838201526020016109c2565b50611178610d9c565b925061118383612419565b60408051808201909152601a81527f5245434f5645525f5641554c545f4e4f545f434f4e54524143540000000000006020820152901515611220576040517f08c379a0000000000000000000000000000000000000000000000000000000008152600401808060200182810382528381815181526020019150805190602001908083836000838110156109da5781810151838201526020016109c2565b5073ffffffffffffffffffffffffffffffffffffffff8416151561128b576040513031925073ffffffffffffffffffffffffffffffffffffffff84169083156108fc029084906000818181858888f19350505050158015611285573d6000803e3d6000fd5b5061137b565b50826112b373ffffffffffffffffffffffffffffffffffffffff82163063ffffffff61245316565b91506112dc73ffffffffffffffffffffffffffffffffffffffff8216848463ffffffff61258c16565b60408051808201909152601d81527f5245434f5645525f544f4b454e5f5452414e534645525f4641494c45440000006020820152901515611379576040517f08c379a0000000000000000000000000000000000000000000000000000000008152600401808060200182810382528381815181526020019150805190602001908083836000838110156109da5781810151838201526020016109c2565b505b8373ffffffffffffffffffffffffffffffffffffffff168373ffffffffffffffffffffffffffffffffffffffff167f596caf56044b55fb8c4ca640089bbc2b63cae3e978b851f5745cbb7c5b288e02846040518082815260200191505060405180910390a350505050565b600080600080600160008060006113fe8c8c8c611da9565b815260208082019290925260409081016000908120548452918301939093529101902080548690811061142d57fe5b60009182526020909120015460ff8082169a61010083049091169950620100009091047dffffffffffffffffffffffffffffffffffffffffffffffffffffffffffff16975095505050505050565b6000806114866108d1565b15156114955760009150610f8e565b61149d611c11565b905073ffffffffffffffffffffffffffffffffffffffff811615156114c55760009150610f8e565b8073ffffffffffffffffffffffffffffffffffffffff1663fdef91068630876114ed8861261b565b6040517c010000000000000000000000000000000000000000000000000000000063ffffffff871602815273ffffffffffffffffffffffffffffffffffffffff808616600483019081529085166024830152604482018490526080606483019081528351608484015283519192909160a490910190602085019080838360005b8381101561158557818101518382015260200161156d565b50505050905090810190601f1680156115b25780820380516001836020036101000a031916815260200191505b5095505050505050602060405180830381600087803b1580156115d457600080fd5b505af11580156115e8573d6000803e3d6000fd5b505050506040513d60208110156115fe57600080fd5b505195945050505050565b600080611614611c11565b604080517fbe00bbd80000000000000000000000000000000000000000000000000000000081527fd6f028ca0e8edb4a8c9757ca4fdccab25fa1e0317da1188108f7d2dee14902fb60048201527fddbcfd564f642ab5627cf68b9b7d374fb4f8a36e941a75d89c87998cef03bd616024820152905173ffffffffffffffffffffffffffffffffffffffff929092169163be00bbd8916044808201926020929091908290030181600087803b158015610d6a57600080fd5b60001981565b81816116dd8282611868565b60408051808201909152601381527f41434c5f415554485f4e4f5f4d414e414745520000000000000000000000000060208201529073ffffffffffffffffffffffffffffffffffffffff163314611790576040517f08c379a0000000000000000000000000000000000000000000000000000000008152600401808060200182810382528381815181526020019150805190602001908083836000838110156109da5781810151838201526020016109c2565b50610bba60008585611d12565b81816117a98282611868565b60408051808201909152601381527f41434c5f415554485f4e4f5f4d414e414745520000000000000000000000000060208201529073ffffffffffffffffffffffffffffffffffffffff16331461185c576040517f08c379a0000000000000000000000000000000000000000000000000000000008152600401808060200182810382528381815181526020019150805190602001908083836000838110156109da5781810151838201526020016109c2565b50610ae7858585611d12565b6000600260006118788585612625565b815260208101919091526040016000205473ffffffffffffffffffffffffffffffffffffffff169392505050565b604080516000808252602082019092527f0b719b33c83b8e5d300c521cb8b54ae9bd933996a14bef8c2f4e0285d2d2400a916118e6913391849190610936565b60408051808201909152600f81527f4150505f415554485f4641494c454400000000000000000000000000000000006020820152901515611983576040517f08c379a0000000000000000000000000000000000000000000000000000000008152600401808060200182810382528381815181526020019150805190602001908083836000838110156109da5781810151838201526020016109c2565b50838360006119928383611868565b73ffffffffffffffffffffffffffffffffffffffff16146040805190810160405280601481526020017f41434c5f4558495354454e545f4d414e41474552000000000000000000000000815250901515611a48576040517f08c379a0000000000000000000000000000000000000000000000000000000008152600401808060200182810382528381815181526020019150805190602001908083836000838110156109da5781810151838201526020016109c2565b50610f6687878787612719565b611a5d610fcc565b60408051808201909152601881527f494e49545f414c52454144595f494e495449414c495a4544000000000000000060208201529015611af9576040517f08c379a0000000000000000000000000000000000000000000000000000000008152600401808060200182810382528381815181526020019150805190602001908083836000838110156109da5781810151838201526020016109c2565b50611b02612750565b611b0a611c11565b60408051808201909152601481527f41434c5f415554485f494e49545f4b45524e454c00000000000000000000000060208201529073ffffffffffffffffffffffffffffffffffffffff163314611bbd576040517f08c379a0000000000000000000000000000000000000000000000000000000008152600401808060200182810382528381815181526020019150805190602001908083836000838110156109da5781810151838201526020016109c2565b50611bea81307f0b719b33c83b8e5d300c521cb8b54ae9bd933996a14bef8c2f4e0285d2d2400a82612719565b50565b7f290decd9548b62a8d60345a988386fc84ba6bc95484008f6362f93160ef3e56381565b6000610fc77f4172f0f7d2289153072b0a6ca36959e0cbe2efc3afe50fc81636caa96338137b612411565b6000600019611c49610fcc565b14905090565b600181565b6000806000806000611c67898989611da9565b815260208101919091526040016000205491508115801590611c915750611c918288888888610c3e565b15611c9f5760019250611cee565b600080611caf6000198989611da9565b815260208101919091526040016000205490508015801590611cdb5750611cdb81600019888888610c3e565b15611ce95760019250611cee565b600092505b5050949350505050565b6000610c82858585611d098661282f565b611c54565b4390565b8260026000611d218585612625565b815260208101919091526040908101600090812080547fffffffffffffffffffffffff00000000000000000000000000000000000000001673ffffffffffffffffffffffffffffffffffffffff9485161790559051858316928492908616917ff3addc8b8e25ee11528a61b0e65092cae0666ef0ec0c64cb303993c88d689b4d9190a4505050565b604080517f5045524d495353494f4e000000000000000000000000000000000000000000006020808301919091526c0100000000000000000000000073ffffffffffffffffffffffffffffffffffffffff8088168202602a850152861602603e8301526052808301859052835180840390910181526072909201928390528151600093918291908401908083835b60208310611e7457805182527fffffffffffffffffffffffffffffffffffffffffffffffffffffffffffffffe09092019160209182019101611e37565b5181516020939093036101000a60001901801990911692169190911790526040519201829003909120979650505050505050565b6000611eb2612dd4565b600088815260016020526040812054819063ffffffff8a1610611ed857600093506120e4565b60008a8152600160205260409020805463ffffffff8b16908110611ef857fe5b600091825260209182902060408051606081018252929091015460ff8082168085526101008304909116948401949094526201000090047dffffffffffffffffffffffffffffffffffffffffffffffffffffffffffff1690820152935060cc1415611f7257611f6b838b8a8a8a8a6128f0565b93506120e4565b50604082015182517dffffffffffffffffffffffffffffffffffffffffffffffffffffffffffff9091169060ff1660cb1415611fd557611fb9836040015189898989612ac3565b611fc4576000611fc7565b60015b60ff16915060019050612093565b825160ff1660c81415611ff157611fea611d0e565b9150612093565b825160ff1660c9141561200657611fea612c2c565b825160ff1660cd141561203f5782604001517dffffffffffffffffffffffffffffffffffffffffffffffffffffffffffff169150612093565b8451835160ff161061205457600093506120e4565b82518551869160ff1690811061206657fe5b906020019060200201517dffffffffffffffffffffffffffffffffffffffffffffffffffffffffffff1691505b6007836020015160ff16600c8111156120a857fe5b600c8111156120b357fe5b14156120c4576000821193506120e4565b6120e182846020015160ff16600c8111156120db57fe5b83612c30565b93505b5050509695505050505050565b6000806000806000612101612dd4565b8660405160200180828051906020019060200280838360005b8381101561213257818101518382015260200161211a565b505050509050019150506040516020818303038152906040526040518082805190602001908083835b6020831061219857805182527fffffffffffffffffffffffffffffffffffffffffffffffffffffffffffffffe0909201916020918201910161215b565b51815160209384036101000a60001901801990921691161790526040805192909401829003909120600081815260019092529290208054929950975050151591506122f8905057600092505b86518310156122f85786838151811015156121fb57fe5b90602001906020020151915060606040519081016040528061221c84612ced565b60ff16815260200161222d84612d13565b60ff90811682527dffffffffffffffffffffffffffffffffffffffffffffffffffffffffffff858116602093840152875460018082018a5560008a81528590208651920180549587015160408801517fffffffffffffffffffffffffffffffffffffffffffffffffffffffffffffff00909716938616939093177fffffffffffffffffffffffffffffffffffffffffffffffffffffffffffff00ff1661010093909516929092029390931761ffff1662010000949092169390930217909155939093019290506121e4565b509295945050505050565b60008082600080612315898989611da9565b8152602081019190915260400160002055821580159250829061235857507f290decd9548b62a8d60345a988386fc84ba6bc95484008f6362f93160ef3e5638314155b6040805184151581529051919250859173ffffffffffffffffffffffffffffffffffffffff80891692908a16917f759b9a74d5354b5801710a0c1b283cc9f0d32b607ac8ced10c83ac8e75c77d529181900360200190a4801561240957604080518481529051859173ffffffffffffffffffffffffffffffffffffffff80891692908a16917f8dfee25d92d73b8c9b868f9fa3e215cc1981033f426e53803e3da4f09a2cfc30919081900360200190a45b505050505050565b5490565b5490565b60008073ffffffffffffffffffffffffffffffffffffffff83161515612442576000915061244d565b823b90506000811191505b50919050565b6040805173ffffffffffffffffffffffffffffffffffffffff83166024808301919091528251808303909101815260449091019091526020810180517bffffffffffffffffffffffffffffffffffffffffffffffffffffffff167f70a082310000000000000000000000000000000000000000000000000000000017905260009081806124e08684612d38565b60408051808201909152601c81527f534146455f4552435f32305f42414c414e43455f52455645525445440000000060208201529193509150821515612582576040517f08c379a0000000000000000000000000000000000000000000000000000000008152600401808060200182810382528381815181526020019150805190602001908083836000838110156109da5781810151838201526020016109c2565b5095945050505050565b6040805173ffffffffffffffffffffffffffffffffffffffff8416602482015260448082018490528251808303909101815260649091019091526020810180517bffffffffffffffffffffffffffffffffffffffffffffffffffffffff167fa9059cbb00000000000000000000000000000000000000000000000000000000179052600090610f8b8582612d69565b8051602002815290565b604080517f524f4c45000000000000000000000000000000000000000000000000000000006020808301919091526c0100000000000000000000000073ffffffffffffffffffffffffffffffffffffffff86160260248301526038808301859052835180840390910181526058909201928390528151600093918291908401908083835b602083106126e657805182527fffffffffffffffffffffffffffffffffffffffffffffffffffffffffffffffe090920191602091820191016126a9565b5181516020939093036101000a600019018019909116921691909117905260405192018290039091209695505050505050565b6127458484847f290decd9548b62a8d60345a988386fc84ba6bc95484008f6362f93160ef3e563612303565b610bba818484611d12565b612758610fcc565b60408051808201909152601881527f494e49545f414c52454144595f494e495449414c495a45440000000000000000602082015290156127f4576040517f08c379a0000000000000000000000000000000000000000000000000000000008152600401808060200182810382528381815181526020019150805190602001908083836000838110156109da5781810151838201526020016109c2565b5061282d612800611d0e565b7febb05b386a8d34882b8711d156f463690983dc47815980fb82aeeff1aa43579e9063ffffffff612db716565b565b606060006020835181151561284057fe5b049050806020028351146040805190810160405280601a81526020017f434f4e56455253494f4e5f494d50524f5045525f4c454e4754480000000000008152509015156128e9576040517f08c379a0000000000000000000000000000000000000000000000000000000008152600401808060200182810382528381815181526020019150805190602001908083836000838110156109da5781810151838201526020016109c2565b5082525090565b60008080808080808080600c8f6020015160ff16600c81111561290f57fe5b600c81111561291a57fe5b14156129855761294d8f604001517dffffffffffffffffffffffffffffffffffffffffffffffffffffffffffff16612dbb565b919950975095506129628e898f8f8f8f611ea8565b945061297e8e866129735787612975565b885b8f8f8f8f611ea8565b9850612ab1565b6129b28f604001517dffffffffffffffffffffffffffffffffffffffffffffffffffffffffffff16612dbb565b5090945092506129c68e858f8f8f8f611ea8565b915060088f6020015160ff16600c8111156129dd57fe5b600c8111156129e857fe5b14156129f75781159850612ab1565b818015612a215750600a8f6020015160ff16600c811115612a1457fe5b600c811115612a1f57fe5b145b15612a2f5760019850612ab1565b81158015612a5a575060098f6020015160ff16600c811115612a4d57fe5b600c811115612a5857fe5b145b15612a685760009850612ab1565b612a768e848f8f8f8f611ea8565b9050600b8f6020015160ff16600c811115612a8d57fe5b600c811115612a9857fe5b1415612aad5780151582151514159850612ab1565b8098505b50505050505050509695505050505050565b60405173ffffffffffffffffffffffffffffffffffffffff85811660248301908152908516604483015260648201849052608060848301908152835160a484015283516000937f2a151090000000000000000000000000000000000000000000000000000000009360609386938493849388938e938e938e938e939092909160c40190602080860191028083838d5b83811015612b6a578181015183820152602001612b52565b5050505090500195505050505050604051602081830303815290604052907bffffffffffffffffffffffffffffffffffffffffffffffffffffffff19166020820180517bffffffffffffffffffffffffffffffffffffffffffffffffffffffff838183161783525050505093506000808551602087018e5afa9250821515612bf55760009550612c1e565b3d915060208214612c095760009550612c1e565b604051826000823e8051915060008152508095505b505050505095945050505050565b4290565b6000600183600c811115612c4057fe5b1415612c4f5750828114610c37565b600283600c811115612c5d57fe5b1415612c6d575082811415610c37565b600383600c811115612c7b57fe5b1415612c8a5750808311610c37565b600483600c811115612c9857fe5b1415612ca75750808310610c37565b600583600c811115612cb557fe5b1415612cc5575080831015610c37565b600683600c811115612cd357fe5b1415612ce3575080831115610c37565b5060009392505050565b7f0100000000000000000000000000000000000000000000000000000000000000900490565b7e01000000000000000000000000000000000000000000000000000000000000900490565b6000806000806040516020818751602089018a5afa92506000831115612d5d57805191505b50909590945092505050565b6000806040516020818551602087016000895af16000811115612dad573d8015612d9a5760208114612da357612dab565b60019350612dab565b600183511493505b505b5090949350505050565b9055565b9064010000000082049068010000000000000000830490565b6040805160608101825260008082526020820181905291810191909152905600a165627a7a72305820e08c08d99b69adfa3c70b2da03ed2a7e0e8f15970ce4ba4991bf875dc9e6df9c0029ebb05b386a8d34882b8711d156f463690983dc47815980fb82aeeff1aa43579e",
  "devdoc": {
    "methods": {
      "allowRecoverability(address)": {
        "details": "By default deriving from AragonApp makes it recoverable",
        "params": {
          "token": "Token address that would be recovered"
        },
        "return": "bool whether the app allows the recovery"
      },
      "burnPermissionManager(address,bytes32)": {
        "params": {
          "_app": "Address of the app in which the permission is being burned",
          "_role": "Identifier for the group of actions being burned"
        }
      },
      "canPerform(address,bytes32,uint256[])": {
        "details": "Check whether an action can be performed by a sender for a particular role on this app",
        "params": {
          "_params": "Permission params for the role",
          "_role": "Role on this app",
          "_sender": "Sender of the call"
        },
        "return": "Boolean indicating whether the sender has the permissions to perform the action.        Always returns false if the app hasn't been initialized yet."
      },
      "createBurnedPermission(address,bytes32)": {
        "params": {
          "_app": "Address of the app in which the permission is being burned",
          "_role": "Identifier for the group of actions being burned"
        }
      },
      "createPermission(address,address,bytes32,address)": {
        "details": "Creates a permission that wasn't previously set and managed.     If a created permission is removed it is possible to reset it with createPermission.     This is the **ONLY** way to create permissions and set managers to permissions that don't     have a manager.     In terms of the ACL being initialized, this function implicitly protects all the other     state-changing external functions, as they all require the sender to be a manager.",
        "params": {
          "_app": "Address of the app in which the role will be allowed (requires app to depend on kernel for ACL)",
          "_entity": "Address of the whitelisted entity that will be able to perform the role",
          "_manager": "Address of the entity that will be able to grant and revoke the permission further.",
          "_role": "Identifier for the group of actions in app given access to perform"
        }
      },
      "getInitializationBlock()": {
        "return": "Block number in which the contract was initialized"
      },
      "getPermissionManager(address,bytes32)": {
        "details": "Get manager for permission",
        "params": {
          "_app": "Address of the app",
          "_role": "Identifier for a group of actions in app"
        },
        "return": "address of the manager for the permission"
      },
      "getPermissionParam(address,address,bytes32,uint256)": {
        "params": {
          "_app": "Address of the app",
          "_entity": "Address of the whitelisted entity that will be able to perform the role",
          "_index": "Index of parameter in the array",
          "_role": "Identifier for a group of actions in app"
        },
        "return": "Parameter (id, op, value)"
      },
      "getPermissionParamsLength(address,address,bytes32)": {
        "params": {
          "_app": "Address of the app",
          "_entity": "Address of the whitelisted entity that will be able to perform the role",
          "_role": "Identifier for a group of actions in app"
        },
        "return": "Length of the array"
      },
      "getRecoveryVault()": {
        "details": "Get the recovery vault for the app",
        "return": "Recovery vault address for the app"
      },
      "grantPermission(address,address,bytes32)": {
        "details": "Grants permission if allowed. This requires `msg.sender` to be the permission manager",
        "params": {
          "_app": "Address of the app in which the role will be allowed (requires app to depend on kernel for ACL)",
          "_entity": "Address of the whitelisted entity that will be able to perform the role",
          "_role": "Identifier for the group of actions in app given access to perform"
        }
      },
      "grantPermissionP(address,address,bytes32,uint256[])": {
        "details": "Grants a permission with parameters if allowed. This requires `msg.sender` to be the permission manager",
        "params": {
          "_app": "Address of the app in which the role will be allowed (requires app to depend on kernel for ACL)",
          "_entity": "Address of the whitelisted entity that will be able to perform the role",
          "_params": "Permission parameters",
          "_role": "Identifier for the group of actions in app given access to perform"
        }
      },
      "hasInitialized()": {
        "return": "Whether the contract has been initialized by the time of the current block"
      },
      "hasPermission(address,address,bytes32,bytes)": {
        "details": "Function called by apps to check ACL on kernel or to check permission statu",
        "params": {
          "_how": "Permission parameters",
          "_where": "Identifier for a group of actions in app",
          "_who": "Sender of the original call"
        },
        "return": "boolean indicating whether the ACL allows the role or not"
      },
      "initialize(address)": {
        "details": "Initialize can only be called once. It saves the block number in which it was initialized.",
        "params": {
          "_permissionsCreator": "Entity that will be given permission over createPermission"
        }
      },
      "removePermissionManager(address,bytes32)": {
        "params": {
          "_app": "Address of the app in which the permission is being unmanaged",
          "_role": "Identifier for the group of actions being unmanaged"
        }
      },
      "revokePermission(address,address,bytes32)": {
        "details": "Revokes permission if allowed. This requires `msg.sender` to be the the permission manager",
        "params": {
          "_app": "Address of the app in which the role will be revoked",
          "_entity": "Address of the whitelisted entity to revoke access from",
          "_role": "Identifier for the group of actions in app being revoked"
        }
      },
      "setPermissionManager(address,address,bytes32)": {
        "params": {
          "_app": "Address of the app in which the permission management is being transferred",
          "_newManager": "Address for the new manager",
          "_role": "Identifier for the group of actions being transferred"
        }
      },
      "transferToVault(address)": {
        "params": {
          "_token": "Token balance to be sent to recovery vault."
        }
      }
    }
  },
  "userdoc": {
    "methods": {
      "burnPermissionManager(address,bytes32)": {
        "notice": "Burn `_role` in `_app`, so no modification can be made to it (grant, revoke, permission manager)"
      },
      "createBurnedPermission(address,bytes32)": {
        "notice": "Burn non-existent `_role` in `_app`, so no modification can be made to it (grant, revoke, permission manager)"
      },
      "createPermission(address,address,bytes32,address)": {
        "notice": "Create a new permission granting `_entity` the ability to perform actions requiring `_role` on `_app`, setting `_manager` as the permission's manager"
      },
      "getPermissionParam(address,address,bytes32,uint256)": {
        "notice": "Get parameter for permission"
      },
      "getPermissionParamsLength(address,address,bytes32)": {
        "notice": "Get parameters for permission array length"
      },
      "grantPermission(address,address,bytes32)": {
        "notice": "Grant `_entity` the ability to perform actions requiring `_role` on `_app`"
      },
      "grantPermissionP(address,address,bytes32,uint256[])": {
        "notice": "Grant `_entity` the ability to perform actions requiring `_role` on `_app`"
      },
      "initialize(address)": {
        "notice": "Initialize an ACL instance and set `_permissionsCreator` as the entity that can create other permissions"
      },
      "removePermissionManager(address,bytes32)": {
        "notice": "Remove the manager of `_role` in `_app`"
      },
      "revokePermission(address,address,bytes32)": {
        "notice": "Revoke from `_entity` the ability to perform actions requiring `_role` on `_app`"
      },
      "setPermissionManager(address,address,bytes32)": {
        "notice": "Set `_newManager` as the manager of `_role` in `_app`"
      },
      "transferToVault(address)": {
        "notice": "Send funds to recovery Vault. This contract should never receive funds,        but in case it does, this function allows one to recover them."
      }
    }
  }
}