{
  "address": "0xc36428063f69848D37bBb264087cF18EbeC7c73e",
  "abi": [
    {
      "constant": true,
      "inputs": [],
      "name": "registryBase",
      "outputs": [
        {
          "name": "",
          "type": "address"
        }
      ],
      "payable": false,
      "stateMutability": "view",
      "type": "function"
    },
    {
      "constant": true,
      "inputs": [],
      "name": "ensSubdomainRegistrarBase",
      "outputs": [
        {
          "name": "",
          "type": "address"
        }
      ],
      "payable": false,
      "stateMutability": "view",
      "type": "function"
    },
    {
      "constant": true,
      "inputs": [],
      "name": "ens",
      "outputs": [
        {
          "name": "",
          "type": "address"
        }
      ],
      "payable": false,
      "stateMutability": "view",
      "type": "function"
    },
    {
      "constant": true,
      "inputs": [],
      "name": "daoFactory",
      "outputs": [
        {
          "name": "",
          "type": "address"
        }
      ],
      "payable": false,
      "stateMutability": "view",
      "type": "function"
    },
    {
      "constant": false,
      "inputs": [
        {
          "name": "_tld",
          "type": "bytes32"
        },
        {
          "name": "_label",
          "type": "bytes32"
        },
        {
          "name": "_root",
          "type": "address"
        }
      ],
      "name": "newAPM",
      "outputs": [
        {
          "name": "",
          "type": "address"
        }
      ],
      "payable": false,
      "stateMutability": "nonpayable",
      "type": "function"
    },
    {
      "constant": true,
      "inputs": [],
      "name": "repoBase",
      "outputs": [
        {
          "name": "",
          "type": "address"
        }
      ],
      "payable": false,
      "stateMutability": "view",
      "type": "function"
    },
    {
      "inputs": [
        {
          "name": "_daoFactory",
          "type": "address"
        },
        {
          "name": "_registryBase",
          "type": "address"
        },
        {
          "name": "_repoBase",
          "type": "address"
        },
        {
          "name": "_ensSubBase",
          "type": "address"
        },
        {
          "name": "_ens",
          "type": "address"
        },
        {
          "name": "_ensFactory",
          "type": "address"
        }
      ],
      "payable": false,
      "stateMutability": "nonpayable",
      "type": "constructor"
    },
    {
      "anonymous": false,
      "inputs": [
        {
          "indexed": true,
          "name": "node",
          "type": "bytes32"
        },
        {
          "indexed": false,
          "name": "apm",
          "type": "address"
        }
      ],
      "name": "DeployAPM",
      "type": "event"
    }
  ],
  "transactionHash": "0x21b2c7cb67cd452bddcb842e554a5a0d264bdda276f34ab1e59390ccfdcffe10",
  "args": [
    "0x0c514a00401666780fcA29d4CD6943085818F049",
    "0xFCc5e257E4dEa1b92A8C8e07D54eCeB198514D7F",
    "0x68716c2788489a5573eF9775B79c907B925ebF7c",
    "0x03846f2D84233F9a2d26753B64D10513e9678360",
    "0x8cF5A255ED61F403837F040B8D9f052857469273",
    "0x0000000000000000000000000000000000000000"
  ],
  "solcInputHash": "78a2f2e46eb54fbd65e9a3b2074936eb",
  "bytecode": "0x608060405234801561001057600080fd5b5060405160c080611ff083398101604090815281516020830151918301516060840151608085015160a09095015160008054600160a060020a0319908116600160a060020a038088169190911790925560018054821683891617905560028054821683871617905560038054909116828516179055939592939192918216151561012657604080517fe9358b010000000000000000000000000000000000000000000000000000000081523060048201529051600160a060020a0383169163e9358b019160248083019260209291908290030181600087803b1580156100f557600080fd5b505af1158015610109573d6000803e3d6000fd5b505050506040513d602081101561011f57600080fd5b5051610128565b815b60048054600160a060020a0392909216600160a060020a0319909216919091179055505050505050611e918061015f6000396000f30060806040526004361061005e5763ffffffff60e060020a60003504166339ca6e8681146100635780633cfb35aa146100945780633f15457f146100a957806348f7f2a3146100be578063aac57b3a146100d3578063caf1bb7c146100fa575b600080fd5b34801561006f57600080fd5b5061007861010f565b60408051600160a060020a039092168252519081900360200190f35b3480156100a057600080fd5b5061007861011e565b3480156100b557600080fd5b5061007861012d565b3480156100ca57600080fd5b5061007861013c565b3480156100df57600080fd5b50610078600435602435600160a060020a036044351661014b565b34801561010657600080fd5b50610078611c63565b600154600160a060020a031681565b600354600160a060020a031681565b600454600160a060020a031681565b600054600160a060020a031681565b6000806000806060600080600080610161611e46565b8c8c6040516020018083600019166000191681526020018260001916600019168152602001925050506040516020818303038152906040526040518082805190602001908083835b602083106101c85780518252601f1990920191602091820191016101a9565b51815160209384036101000a600019018019909216911617905260408051929094018290038220600480547f02571be30000000000000000000000000000000000000000000000000000000085529084018290529451909f50309650600160a060020a0390941694506302571be3936024808401945091929091908290030181600087803b15801561025957600080fd5b505af115801561026d573d6000803e3d6000fd5b505050506040513d602081101561028357600080fd5b5051600160a060020a0316146103eb5730600160a060020a0316600460009054906101000a9004600160a060020a0316600160a060020a03166302571be38f6040518263ffffffff1660e060020a028152600401808260001916600019168152602001915050602060405180830381600087803b15801561030357600080fd5b505af1158015610317573d6000803e3d6000fd5b505050506040513d602081101561032d57600080fd5b5051600160a060020a03161461034257600080fd5b600460009054906101000a9004600160a060020a0316600160a060020a03166306ab59238e8e306040518463ffffffff1660e060020a028152600401808460001916600019168152602001836000191660001916815260200182600160a060020a0316600160a060020a031681526020019350505050600060405180830381600087803b1580156103d257600080fd5b505af11580156103e6573d6000803e3d6000fd5b505050505b60008054604080517f216874440000000000000000000000000000000000000000000000000000000081523060048201529051600160a060020a03909216926321687444926024808401936020939083900390910190829087803b15801561045257600080fd5b505af1158015610466573d6000803e3d6000fd5b505050506040513d602081101561047c57600080fd5b5051604080517fde2873590000000000000000000000000000000000000000000000000000000081529051919950600160a060020a038a169163de287359916004808201926020929091908290030181600087803b1580156104dd57600080fd5b505af11580156104f1573d6000803e3d6000fd5b505050506040513d602081101561050757600080fd5b5051604080517f8ea8dc9d0000000000000000000000000000000000000000000000000000000081529051919850600160a060020a03808a169263be0384789230928d9290831691638ea8dc9d9160048083019260209291908290030181600087803b15801561057657600080fd5b505af115801561058a573d6000803e3d6000fd5b505050506040513d60208110156105a057600080fd5b50516040805160e060020a63ffffffff8716028152600160a060020a03948516600482015292909316602483015260448201523060648201529051608480830192600092919082900301818387803b1580156105fb57600080fd5b505af115801561060f573d6000803e3d6000fd5b50506040805160008152606081018252600a60208083018281527f61706d2d656e73737562000000000000000000000000000000000000000000008486019081529451939c50600160a060020a038f16965063397edd4195508f949093909101918291908083835b602083106106965780518252601f199092019160209182019101610677565b6001836020036101000a0380198251168184511680821785525050505050509050019150506040516020818303038152906040526040518082805190602001908083835b602083106106f95780518252601f1990920191602091820191016106da565b51815160209384036101000a6000190180199092169116179052604080519290940182900382208282019790975281840196909652825180820384018152606090910192839052805190959294508493509185019190508083835b602083106107735780518252601f199092019160209182019101610754565b6001836020036101000a0380198251168184511680821785525050505050509050019150506040518091039020600360009054906101000a9004600160a060020a03168960006040518563ffffffff1660e060020a02815260040180856000191660001916815260200184600160a060020a0316600160a060020a031681526020018060200183151515158152602001828103825284818151815260200191508051906020019080838360005b83811015610838578181015183820152602001610820565b50505050905090810190601f1680156108655780820380516001836020036101000a031916815260200191505b5095505050505050602060405180830381600087803b15801561088757600080fd5b505af115801561089b573d6000803e3d6000fd5b505050506040513d60208110156108b157600080fd5b5051604080518082018252600c8082527f61706d2d7265676973747279000000000000000000000000000000000000000060208381019182529351949950600160a060020a038d169463397edd41948f949391019182918083835b6020831061092b5780518252601f19909201916020918201910161090c565b6001836020036101000a0380198251168184511680821785525050505050509050019150506040516020818303038152906040526040518082805190602001908083835b6020831061098e5780518252601f19909201916020918201910161096f565b51815160209384036101000a6000190180199092169116179052604080519290940182900382208282019790975281840196909652825180820384018152606090910192839052805190959294508493509185019190508083835b60208310610a085780518252601f1990920191602091820191016109e9565b6001836020036101000a0380198251168184511680821785525050505050509050019150506040518091039020600160009054906101000a9004600160a060020a03168960006040518563ffffffff1660e060020a02815260040180856000191660001916815260200184600160a060020a0316600160a060020a031681526020018060200183151515158152602001828103825284818151815260200191508051906020019080838360005b83811015610acd578181015183820152602001610ab5565b50505050905090810190601f168015610afa5780820380516001836020036101000a031916815260200191505b5095505050505050602060405180830381600087803b158015610b1c57600080fd5b505af1158015610b30573d6000803e3d6000fd5b505050506040513d6020811015610b4657600080fd5b505160408051808201825260088082527f61706d2d7265706f000000000000000000000000000000000000000000000000602083810191825293519498508d949293929092019182918083835b60208310610bb25780518252601f199092019160209182019101610b93565b6001836020036101000a0380198251168184511680821785525050505050509050019150506040516020818303038152906040526040518082805190602001908083835b60208310610c155780518252601f199092019160209182019101610bf6565b51815160209384036101000a6000190180199092169116179052604080519290940182900382208282019790975281840196909652825180820384018152606090910192839052805190959294508493509185019190508083835b60208310610c8f5780518252601f199092019160209182019101610c70565b51815160209384036101000a6000190180199092169116179052604080519290940182900382207fdb8a61d40000000000000000000000000000000000000000000000000000000083529351939850600160a060020a038e16955063ae5b25409450859363db8a61d493506004808401938290030181600087803b158015610d1657600080fd5b505af1158015610d2a573d6000803e3d6000fd5b505050506040513d6020811015610d4057600080fd5b50516002546040805160e060020a63ffffffff8616028152600481019390935260248301889052600160a060020a03909116604483015251606480830192600092919082900301818387803b158015610d9857600080fd5b505af1158015610dac573d6000803e3d6000fd5b505060408051600160a060020a038816815290518c93507f5dd941cb8701bb50205e5aef88c8532b8d6e75b7b65e2c458e9acdf261f0f29292509081900360200190a286600160a060020a031663be038478858788600160a060020a031663fef47e386040518163ffffffff1660e060020a028152600401602060405180830381600087803b158015610e3e57600080fd5b505af1158015610e52573d6000803e3d6000fd5b505050506040513d6020811015610e6857600080fd5b50516040805160e060020a63ffffffff8716028152600160a060020a03948516600482015292841660248401526044830191909152918f1660648201529051608480830192600092919082900301818387803b158015610ec757600080fd5b505af1158015610edb573d6000803e3d6000fd5b5050505086600160a060020a031663be038478858788600160a060020a031663307482cf6040518163ffffffff1660e060020a028152600401602060405180830381600087803b158015610f2e57600080fd5b505af1158015610f42573d6000803e3d6000fd5b505050506040513d6020811015610f5857600080fd5b50516040805160e060020a63ffffffff8716028152600160a060020a03948516600482015292841660248401526044830191909152918f1660648201529051608480830192600092919082900301818387803b158015610fb757600080fd5b505af1158015610fcb573d6000803e3d6000fd5b5050505086600160a060020a0316633d6ab68f6040518163ffffffff1660e060020a028152600401602060405180830381600087803b15801561100d57600080fd5b505af1158015611021573d6000803e3d6000fd5b505050506040513d602081101561103757600080fd5b5051604080517f0a8ed3db000000000000000000000000000000000000000000000000000000008152600160a060020a0387811660048301528a16602482018190526044820184905291519294509091630a8ed3db9160648082019260009290919082900301818387803b1580156110ae57600080fd5b505af11580156110c2573d6000803e3d6000fd5b505060048054604080517f5b0fc9c30000000000000000000000000000000000000000000000000000000081529283018e9052600160a060020a038a81166024850152905191169350635b0fc9c39250604480830192600092919082900301818387803b15801561113257600080fd5b505af1158015611146573d6000803e3d6000fd5b505060048054604080517fbe13f47c000000000000000000000000000000000000000000000000000000008152600160a060020a0392831693810193909352602483018e905251908916935063be13f47c9250604480830192600092919082900301818387803b1580156111b957600080fd5b505af11580156111cd573d6000803e3d6000fd5b5050505083600160a060020a031663c4d66de8866040518263ffffffff1660e060020a0281526004018082600160a060020a0316600160a060020a03168152602001915050600060405180830381600087803b15801561122c57600080fd5b505af1158015611240573d6000803e3d6000fd5b5050600183525050604080517f5e1f3fa80000000000000000000000000000000000000000000000000000000081529051600160a060020a03808a169263be038478923092899290831691635e1f3fa8916004808201926020929091908290030181600087803b1580156112b357600080fd5b505af11580156112c7573d6000803e3d6000fd5b505050506040513d60208110156112dd57600080fd5b50516040805160e060020a63ffffffff8716028152600160a060020a03948516600482015292909316602483015260448201523060648201529051608480830192600092919082900301818387803b15801561133857600080fd5b505af115801561134c573d6000803e3d6000fd5b5050505083600160a060020a03166332ab6af06040805190810160405280600c81526020017f61706d2d726567697374727900000000000000000000000000000000000000008152508d84600160009054906101000a9004600160a060020a03166113eb6040805190810160405280600881526020017f697066733a61706d000000000000000000000000000000000000000000000000815250611c72565b60405160e060020a63ffffffff8816028152600160a060020a03851660248201526004810190819060440185606080838360005b8381101561143757818101518382015260200161141f565b5050505090500184600160a060020a0316600160a060020a0316815260200180602001838103835288818151815260200191508051906020019080838360005b8381101561148f578181015183820152602001611477565b50505050905090810190601f1680156114bc5780820380516001836020036101000a031916815260200191505b50838103825284518152845160209182019186019080838360005b838110156114ef5781810151838201526020016114d7565b50505050905090810190601f16801561151c5780820380516001836020036101000a031916815260200191505b50975050505050505050602060405180830381600087803b15801561154057600080fd5b505af1158015611554573d6000803e3d6000fd5b505050506040513d602081101561156a57600080fd5b81019080805190602001909291905050505083600160a060020a03166332ab6af06040805190810160405280600a81526020017f61706d2d656e73737562000000000000000000000000000000000000000000008152508d84600360009054906101000a9004600160a060020a03166116176040805190810160405280600b81526020017f697066733a656e73737562000000000000000000000000000000000000000000815250611c72565b60405160e060020a63ffffffff8816028152600160a060020a03851660248201526004810190819060440185606080838360005b8381101561166357818101518382015260200161164b565b5050505090500184600160a060020a0316600160a060020a0316815260200180602001838103835288818151815260200191508051906020019080838360005b838110156116bb5781810151838201526020016116a3565b50505050905090810190601f1680156116e85780820380516001836020036101000a031916815260200191505b50838103825284518152845160209182019186019080838360005b8381101561171b578181015183820152602001611703565b50505050905090810190601f1680156117485780820380516001836020036101000a031916815260200191505b50975050505050505050602060405180830381600087803b15801561176c57600080fd5b505af1158015611780573d6000803e3d6000fd5b505050506040513d602081101561179657600080fd5b81019080805190602001909291905050505083600160a060020a03166332ab6af06040805190810160405280600881526020017f61706d2d7265706f0000000000000000000000000000000000000000000000008152508d84600260009054906101000a9004600160a060020a03166118436040805190810160405280600981526020017f697066733a7265706f0000000000000000000000000000000000000000000000815250611c72565b60405160e060020a63ffffffff8816028152600160a060020a03851660248201526004810190819060440185606080838360005b8381101561188f578181015183820152602001611877565b5050505090500184600160a060020a0316600160a060020a0316815260200180602001838103835288818151815260200191508051906020019080838360005b838110156118e75781810151838201526020016118cf565b50505050905090810190601f1680156119145780820380516001836020036101000a031916815260200191505b50838103825284518152845160209182019186019080838360005b8381101561194757818101518382015260200161192f565b50505050905090810190601f1680156119745780820380516001836020036101000a031916815260200191505b50975050505050505050602060405180830381600087803b15801561199857600080fd5b505af11580156119ac573d6000803e3d6000fd5b505050506040513d60208110156119c257600080fd5b506119d0905087858d611c75565b86600160a060020a031663afd925df8c8a8b600160a060020a0316638ea8dc9d6040518163ffffffff1660e060020a028152600401602060405180830381600087803b158015611a1f57600080fd5b505af1158015611a33573d6000803e3d6000fd5b505050506040513d6020811015611a4957600080fd5b50516040805160e060020a63ffffffff8716028152600160a060020a03948516600482015292909316602483015260448201529051606480830192600092919082900301818387803b158015611a9e57600080fd5b505af1158015611ab2573d6000803e3d6000fd5b5050604080517f9d0effdb000000000000000000000000000000000000000000000000000000008152306004820152600160a060020a038b1660248201819052604482018790529151919350639d0effdb925060648082019260009290919082900301818387803b158015611b2657600080fd5b505af1158015611b3a573d6000803e3d6000fd5b5050604080517f0a8ed3db000000000000000000000000000000000000000000000000000000008152600160a060020a038f811660048301528b1660248201819052604482018790529151919350630a8ed3db925060648082019260009290919082900301818387803b158015611bb057600080fd5b505af1158015611bc4573d6000803e3d6000fd5b5050604080517fafd925df000000000000000000000000000000000000000000000000000000008152600160a060020a038f811660048301528b166024820181905260448201879052915191935063afd925df925060648082019260009290919082900301818387803b158015611c3a57600080fd5b505af1158015611c4e573d6000803e3d6000fd5b50959f9e505050505050505050505050505050565b600254600160a060020a031681565b90565b82600160a060020a0316630a8ed3db828485600160a060020a0316635e1f3fa86040518163ffffffff1660e060020a028152600401602060405180830381600087803b158015611cc457600080fd5b505af1158015611cd8573d6000803e3d6000fd5b505050506040513d6020811015611cee57600080fd5b50516040805160e060020a63ffffffff8716028152600160a060020a03948516600482015292909316602483015260448201529051606480830192600092919082900301818387803b158015611d4357600080fd5b505af1158015611d57573d6000803e3d6000fd5b5050505082600160a060020a031663afd925df828485600160a060020a0316635e1f3fa86040518163ffffffff1660e060020a028152600401602060405180830381600087803b158015611daa57600080fd5b505af1158015611dbe573d6000803e3d6000fd5b505050506040513d6020811015611dd457600080fd5b50516040805160e060020a63ffffffff8716028152600160a060020a03948516600482015292909316602483015260448201529051606480830192600092919082900301818387803b158015611e2957600080fd5b505af1158015611e3d573d6000803e3d6000fd5b50505050505050565b60606040519081016040528060039060208202803883395091929150505600a165627a7a72305820322e97725b896bfb87fd14a0e738bc01dcad43568fff3e23671f98ac71a1af520029",
  "devdoc": {
    "methods": {
      "newAPM(bytes32,bytes32,address)": {
        "params": {
          "_label": "The subdomain label",
          "_root": "Manager for the new aragonPM DAO",
          "_tld": "The parent node of the controlled subdomain"
        },
        "return": "The new aragonPM's APMRegistry app"
      }
    }
  },
  "userdoc": {
    "methods": {
      "newAPM(bytes32,bytes32,address)": {
        "notice": "Create a new Aragon Package Manager (aragonPM) DAO, holding the `_label` subdomain from parent `_tld` and controlled by `_root`"
      }
    }
  }
}