{
  "address": "0x68716c2788489a5573eF9775B79c907B925ebF7c",
  "abi": [
    {
      "constant": true,
      "inputs": [],
      "name": "hasInitialized",
      "outputs": [
        {
          "name": "",
          "type": "bool"
        }
      ],
      "payable": false,
      "stateMutability": "view",
      "type": "function"
    },
    {
      "constant": true,
      "inputs": [
        {
          "name": "_script",
          "type": "bytes"
        }
      ],
      "name": "getEVMScriptExecutor",
      "outputs": [
        {
          "name": "",
          "type": "address"
        }
      ],
      "payable": false,
      "stateMutability": "view",
      "type": "function"
    },
    {
      "constant": true,
      "inputs": [],
      "name": "getRecoveryVault",
      "outputs": [
        {
          "name": "",
          "type": "address"
        }
      ],
      "payable": false,
      "stateMutability": "view",
      "type": "function"
    },
    {
      "constant": true,
      "inputs": [
        {
          "name": "_semanticVersion",
          "type": "uint16[3]"
        }
      ],
      "name": "getBySemanticVersion",
      "outputs": [
        {
          "name": "semanticVersion",
          "type": "uint16[3]"
        },
        {
          "name": "contractAddress",
          "type": "address"
        },
        {
          "name": "contentURI",
          "type": "bytes"
        }
      ],
      "payable": false,
      "stateMutability": "view",
      "type": "function"
    },
    {
      "constant": false,
      "inputs": [
        {
          "name": "_newSemanticVersion",
          "type": "uint16[3]"
        },
        {
          "name": "_contractAddress",
          "type": "address"
        },
        {
          "name": "_contentURI",
          "type": "bytes"
        }
      ],
      "name": "newVersion",
      "outputs": [],
      "payable": false,
      "stateMutability": "nonpayable",
      "type": "function"
    },
    {
      "constant": true,
      "inputs": [
        {
          "name": "_versionId",
          "type": "uint256"
        }
      ],
      "name": "getByVersionId",
      "outputs": [
        {
          "name": "semanticVersion",
          "type": "uint16[3]"
        },
        {
          "name": "contractAddress",
          "type": "address"
        },
        {
          "name": "contentURI",
          "type": "bytes"
        }
      ],
      "payable": false,
      "stateMutability": "view",
      "type": "function"
    },
    {
      "constant": true,
      "inputs": [
        {
          "name": "token",
          "type": "address"
        }
      ],
      "name": "allowRecoverability",
      "outputs": [
        {
          "name": "",
          "type": "bool"
        }
      ],
      "payable": false,
      "stateMutability": "view",
      "type": "function"
    },
    {
      "constant": true,
      "inputs": [],
      "name": "appId",
      "outputs": [
        {
          "name": "",
          "type": "bytes32"
        }
      ],
      "payable": false,
      "stateMutability": "view",
      "type": "function"
    },
    {
      "constant": false,
      "inputs": [],
      "name": "initialize",
      "outputs": [],
      "payable": false,
      "stateMutability": "nonpayable",
      "type": "function"
    },
    {
      "constant": true,
      "inputs": [],
      "name": "getInitializationBlock",
      "outputs": [
        {
          "name": "",
          "type": "uint256"
        }
      ],
      "payable": false,
      "stateMutability": "view",
      "type": "function"
    },
    {
      "constant": true,
      "inputs": [
        {
          "name": "_contractAddress",
          "type": "address"
        }
      ],
      "name": "getLatestForContractAddress",
      "outputs": [
        {
          "name": "semanticVersion",
          "type": "uint16[3]"
        },
        {
          "name": "contractAddress",
          "type": "address"
        },
        {
          "name": "contentURI",
          "type": "bytes"
        }
      ],
      "payable": false,
      "stateMutability": "view",
      "type": "function"
    },
    {
      "constant": false,
      "inputs": [
        {
          "name": "_token",
          "type": "address"
        }
      ],
      "name": "transferToVault",
      "outputs": [],
      "payable": false,
      "stateMutability": "nonpayable",
      "type": "function"
    },
    {
      "constant": true,
      "inputs": [
        {
          "name": "_sender",
          "type": "address"
        },
        {
          "name": "_role",
          "type": "bytes32"
        },
        {
          "name": "_params",
          "type": "uint256[]"
        }
      ],
      "name": "canPerform",
      "outputs": [
        {
          "name": "",
          "type": "bool"
        }
      ],
      "payable": false,
      "stateMutability": "view",
      "type": "function"
    },
    {
      "constant": true,
      "inputs": [],
      "name": "getEVMScriptRegistry",
      "outputs": [
        {
          "name": "",
          "type": "address"
        }
      ],
      "payable": false,
      "stateMutability": "view",
      "type": "function"
    },
    {
      "constant": true,
      "inputs": [
        {
          "name": "_oldVersion",
          "type": "uint16[3]"
        },
        {
          "name": "_newVersion",
          "type": "uint16[3]"
        }
      ],
      "name": "isValidBump",
      "outputs": [
        {
          "name": "",
          "type": "bool"
        }
      ],
      "payable": false,
      "stateMutability": "pure",
      "type": "function"
    },
    {
      "constant": true,
      "inputs": [],
      "name": "CREATE_VERSION_ROLE",
      "outputs": [
        {
          "name": "",
          "type": "bytes32"
        }
      ],
      "payable": false,
      "stateMutability": "view",
      "type": "function"
    },
    {
      "constant": true,
      "inputs": [],
      "name": "getLatest",
      "outputs": [
        {
          "name": "semanticVersion",
          "type": "uint16[3]"
        },
        {
          "name": "contractAddress",
          "type": "address"
        },
        {
          "name": "contentURI",
          "type": "bytes"
        }
      ],
      "payable": false,
      "stateMutability": "view",
      "type": "function"
    },
    {
      "constant": true,
      "inputs": [],
      "name": "getVersionsCount",
      "outputs": [
        {
          "name": "",
          "type": "uint256"
        }
      ],
      "payable": false,
      "stateMutability": "view",
      "type": "function"
    },
    {
      "constant": true,
      "inputs": [],
      "name": "kernel",
      "outputs": [
        {
          "name": "",
          "type": "address"
        }
      ],
      "payable": false,
      "stateMutability": "view",
      "type": "function"
    },
    {
      "constant": true,
      "inputs": [],
      "name": "isPetrified",
      "outputs": [
        {
          "name": "",
          "type": "bool"
        }
      ],
      "payable": false,
      "stateMutability": "view",
      "type": "function"
    },
    {
      "anonymous": false,
      "inputs": [
        {
          "indexed": false,
          "name": "versionId",
          "type": "uint256"
        },
        {
          "indexed": false,
          "name": "semanticVersion",
          "type": "uint16[3]"
        }
      ],
      "name": "NewVersion",
      "type": "event"
    },
    {
      "anonymous": false,
      "inputs": [
        {
          "indexed": true,
          "name": "executor",
          "type": "address"
        },
        {
          "indexed": false,
          "name": "script",
          "type": "bytes"
        },
        {
          "indexed": false,
          "name": "input",
          "type": "bytes"
        },
        {
          "indexed": false,
          "name": "returnData",
          "type": "bytes"
        }
      ],
      "name": "ScriptResult",
      "type": "event"
    },
    {
      "anonymous": false,
      "inputs": [
        {
          "indexed": true,
          "name": "vault",
          "type": "address"
        },
        {
          "indexed": true,
          "name": "token",
          "type": "address"
        },
        {
          "indexed": false,
          "name": "amount",
          "type": "uint256"
        }
      ],
      "name": "RecoverToVault",
      "type": "event"
    }
  ],
  "transactionHash": "0x03e68966f00da804e82c57f298ba10186c1c3ed9ef8e9e390bb54b11e1ef401e",
  "args": [],
  "solcInputHash": "78a2f2e46eb54fbd65e9a3b2074936eb",
  "bytecode": "0x6080604052620000176401000000006200001d810204565b6200023b565b6200003064010000000062000125810204565b60408051808201909152601881527f494e49545f414c52454144595f494e495449414c495a45440000000000000000602082015290156200010c576040517f08c379a00000000000000000000000000000000000000000000000000000000081526004018080602001828103825283818151815260200191508051906020019080838360005b83811015620000d0578181015183820152602001620000b6565b50505050905090810190601f168015620000fe5780820380516001836020036101000a031916815260200191505b509250505060405180910390fd5b506200012360001964010000000062000154810204565b565b60006200014f60008051602062001d74833981519152640100000000620016416200023382021704565b905090565b6200016764010000000062000125810204565b60408051808201909152601881527f494e49545f414c52454144595f494e495449414c495a454400000000000000006020820152901562000206576040517f08c379a000000000000000000000000000000000000000000000000000000000815260040180806020018281038252838181518152602001915080519060200190808383600083811015620000d0578181015183820152602001620000b6565b506200023060008051602062001d7483398151915282640100000000620019166200023782021704565b50565b5490565b9055565b611b29806200024b6000396000f3006080604052600436106101115763ffffffff7c01000000000000000000000000000000000000000000000000000000006000350416630803fac081146101165780632914b9bd1461013f57806332f0a3b5146101b45780634c3ba268146101c957806373053410146102c6578063737e7d4f146103565780637e7db6e11461036e57806380afdea81461038f5780638129fc1c146103b65780638b3dd749146103cb5780639a6fe50c146103e05780639d4941d814610401578063a1658fad14610422578063a479e50814610489578063a7bdf16e1461049e578063aa61924a14610507578063c36af4601461051c578063c6d48e0d14610531578063d4aae0c414610546578063de4796ed1461055b575b600080fd5b34801561012257600080fd5b5061012b610570565b604080519115158252519081900360200190f35b34801561014b57600080fd5b506040805160206004803580820135601f810184900484028501840190955284845261019894369492936024939284019190819084018382808284375094975061059a9650505050505050565b60408051600160a060020a039092168252519081900360200190f35b3480156101c057600080fd5b50610198610699565b3480156101d557600080fd5b5060408051606081810190925261020c91369160049160649190839060039083908390808284375093965061072b95505050505050565b6040518084606080838360005b83811015610231578181015183820152602001610219565b5050505090500183600160a060020a0316600160a060020a0316815260200180602001828103825283818151815260200191508051906020019080838360005b83811015610289578181015183820152602001610271565b50505050905090810190601f1680156102b65780820380516001836020036101000a031916815260200191505b5094505050505060405180910390f35b3480156102d257600080fd5b50604080516060818101909252610354913691600491606491908390600390839083908082843750506040805160208781013589018035601f81018390048302840183018552808452979a8935600160a060020a03169a90999098940196509194509081019250819084018382808284375094975061076a9650505050505050565b005b34801561036257600080fd5b5061020c600435610bef565b34801561037a57600080fd5b5061012b600160a060020a0360043516610dc5565b34801561039b57600080fd5b506103a4610dcb565b60408051918252519081900360200190f35b3480156103c257600080fd5b50610354610dfb565b3480156103d757600080fd5b506103a4610eaf565b3480156103ec57600080fd5b5061020c600160a060020a0360043516610eda565b34801561040d57600080fd5b50610354600160a060020a0360043516610f07565b34801561042e57600080fd5b50604080516020600460443581810135838102808601850190965280855261012b958335600160a060020a03169560248035963696956064959394920192918291850190849080828437509497506111db9650505050505050565b34801561049557600080fd5b50610198611344565b3480156104aa57600080fd5b5060408051606081810190925261012b91369160049160649190839060039083908390808284375050604080516060818101909252949796958181019594509250600391508390839080828437509396506113f995505050505050565b34801561051357600080fd5b506103a46114e8565b34801561052857600080fd5b5061020c61150c565b34801561053d57600080fd5b506103a4611531565b34801561055257600080fd5b5061019861153b565b34801561056757600080fd5b5061012b611566565b60008061057b610eaf565b90508015801590610593575080610590611579565b10155b91505b5090565b60006105a4611344565b600160a060020a03166304bf2a7f836040518263ffffffff167c01000000000000000000000000000000000000000000000000000000000281526004018080602001828103825283818151815260200191508051906020019080838360005b8381101561061b578181015183820152602001610603565b50505050905090810190601f1680156106485780820380516001836020036101000a031916815260200191505b5092505050602060405180830381600087803b15801561066757600080fd5b505af115801561067b573d6000803e3d6000fd5b505050506040513d602081101561069157600080fd5b505192915050565b60006106a361153b565b600160a060020a03166332f0a3b56040518163ffffffff167c0100000000000000000000000000000000000000000000000000000000028152600401602060405180830381600087803b1580156106f957600080fd5b505af115801561070d573d6000803e3d6000fd5b505050506040513d602081101561072357600080fd5b505190505b90565b610733611999565b6000606061075d600260006107478761157d565b8152602081019190915260400160002054610bef565b9250925092509193909250565b600080610775611999565b6040805160008082526020820190925281907f1f56cfecd3595a2e6cc1a7e6cb0b20df84cdbd92eff2fee554e70e4e45a9a7d8906107b690339083906111db565b60408051808201909152600f81527f4150505f415554485f4641494c45440000000000000000000000000000000000602082015290151561088f576040517f08c379a00000000000000000000000000000000000000000000000000000000081526004018080602001828103825283818151815260200191508051906020019080838360005b8381101561085457818101518382015260200161083c565b50505050905090810190601f1680156108815780820380516001836020036101000a031916815260200191505b509250505060405180910390fd5b50879550600160005403945060008511156109f157600085815260016020526040808220815160608101928390529095509185916003918390855b82829054906101000a900461ffff1661ffff16815260200190600201906020826001010492830192600103820291508084116108ca5790505093975050505050600160a060020a038616151561092b576001830154600160a060020a031695505b6001830154600160a060020a038781169116148061095257508254895161ffff9182169116115b60408051808201909152601481527f5245504f5f494e56414c49445f56455253494f4e00000000000000000000000060208201529015156109ef576040517f08c379a00000000000000000000000000000000000000000000000000000000081526004018080602001828103825283818151815260200191508051906020019080838360008381101561085457818101518382015260200161083c565b505b6109fb848a6113f9565b60408051808201909152601181527f5245504f5f494e56414c49445f42554d500000000000000000000000000000006020820152901515610a98576040517f08c379a00000000000000000000000000000000000000000000000000000000081526004018080602001828103825283818151815260200191508051906020019080838360008381101561085457818101518382015260200161083c565b506000805460018082018355604080516060810182528d8152600160a060020a038b166020808301919091528183018d905284865292909252909220825191945090610ae790829060036119b8565b506020828101516001830180547fffffffffffffffffffffffff000000000000000000000000000000000000000016600160a060020a0390921691909117905560408301518051610b3e9260028501920190611a4a565b509050508160026000610b508c61157d565b81526020808201929092526040908101600090812093909355600160a060020a038916835260038252808320859055518481527e3aea8189d1a0aa3ebdb05219cd4c2a663166706e949e9d6e8aa63718ca43fd9285928d92919082019083906060908190849084905b83811015610bd1578181015183820152602001610bb9565b505050509050019250505060405180910390a1505050505050505050565b610bf7611999565b6000606060008085118015610c0d575060005485105b60408051808201909152601781527f5245504f5f494e4558495354454e545f56455253494f4e0000000000000000006020820152901515610caa576040517f08c379a00000000000000000000000000000000000000000000000000000000081526004018080602001828103825283818151815260200191508051906020019080838360008381101561085457818101518382015260200161083c565b50506000848152600160208190526040808320918201548151606081019283905292938493600160a060020a039092169260028501929185916003918390855b82829054906101000a900461ffff1661ffff1681526020019060020190602082600101049283019260010382029150808411610cea575050855460408051602060026001851615610100026000190190941693909304601f8101849004840282018401909252818152969950879550935085019150839050828015610db05780601f10610d8557610100808354040283529160200191610db0565b820191906000526020600020905b815481529060010190602001808311610d9357829003601f168201915b50505050509050935093509350509193909250565b50600190565b6000610df67fd625496217aa6a3453eecb9c3489dc5a53e6c67b444329ea2b2cbc9ff547639b611641565b905090565b610e03610eaf565b60408051808201909152601881527f494e49545f414c52454144595f494e495449414c495a4544000000000000000060208201529015610e9f576040517f08c379a00000000000000000000000000000000000000000000000000000000081526004018080602001828103825283818151815260200191508051906020019080838360008381101561085457818101518382015260200161083c565b50610ea8611645565b6001600055565b6000610df67febb05b386a8d34882b8711d156f463690983dc47815980fb82aeeff1aa43579e611641565b610ee2611999565b600160a060020a03821660009081526003602052604081205460609061075d90610bef565b6000806000610f1584610dc5565b60408051808201909152601281527f5245434f5645525f444953414c4c4f57454400000000000000000000000000006020820152901515610fb2576040517f08c379a00000000000000000000000000000000000000000000000000000000081526004018080602001828103825283818151815260200191508051906020019080838360008381101561085457818101518382015260200161083c565b50610fbb610699565b9250610fc683611728565b60408051808201909152601a81527f5245434f5645525f5641554c545f4e4f545f434f4e54524143540000000000006020820152901515611063576040517f08c379a00000000000000000000000000000000000000000000000000000000081526004018080602001828103825283818151815260200191508051906020019080838360008381101561085457818101518382015260200161083c565b50600160a060020a03841615156110b45760405130319250600160a060020a0384169083156108fc029084906000818181858888f193505050501580156110ae573d6000803e3d6000fd5b5061118a565b50826110cf600160a060020a0382163063ffffffff61175516565b91506110eb600160a060020a038216848463ffffffff61188116565b60408051808201909152601d81527f5245434f5645525f544f4b454e5f5452414e534645525f4641494c45440000006020820152901515611188576040517f08c379a00000000000000000000000000000000000000000000000000000000081526004018080602001828103825283818151815260200191508051906020019080838360008381101561085457818101518382015260200161083c565b505b83600160a060020a031683600160a060020a03167f596caf56044b55fb8c4ca640089bbc2b63cae3e978b851f5745cbb7c5b288e02846040518082815260200191505060405180910390a350505050565b6000806111e6610570565b15156111f5576000915061133c565b6111fd61153b565b9050600160a060020a0381161515611218576000915061133c565b80600160a060020a031663fdef91068630876112338861190c565b6040517c010000000000000000000000000000000000000000000000000000000063ffffffff8716028152600160a060020a03808616600483019081529085166024830152604482018490526080606483019081528351608484015283519192909160a490910190602085019080838360005b838110156112be5781810151838201526020016112a6565b50505050905090810190601f1680156112eb5780820380516001836020036101000a031916815260200191505b5095505050505050602060405180830381600087803b15801561130d57600080fd5b505af1158015611321573d6000803e3d6000fd5b505050506040513d602081101561133757600080fd5b505191505b509392505050565b60008061134f61153b565b604080517fbe00bbd80000000000000000000000000000000000000000000000000000000081527fd6f028ca0e8edb4a8c9757ca4fdccab25fa1e0317da1188108f7d2dee14902fb60048201527fddbcfd564f642ab5627cf68b9b7d374fb4f8a36e941a75d89c87998cef03bd6160248201529051600160a060020a03929092169163be00bbd8916044808201926020929091908290030181600087803b15801561066757600080fd5b600080805b60038110156114dc5781156114355783816003811061141957fe5b602002015161ffff161561143057600092506114e0565b6114d4565b84816003811061144157fe5b602002015161ffff1684826003811061145657fe5b602002015161ffff16146114d45783816003811061147057fe5b602002015161ffff1685826003811061148557fe5b602002015161ffff1611806114c157508481600381106114a157fe5b60200201518482600381106114b257fe5b60200201510361ffff16600114155b156114cf57600092506114e0565b600191505b6001016113fe565b8192505b505092915050565b7f1f56cfecd3595a2e6cc1a7e6cb0b20df84cdbd92eff2fee554e70e4e45a9a7d881565b611514611999565b60006060611526600160005403610bef565b925092509250909192565b6000546000190190565b6000610df67f4172f0f7d2289153072b0a6ca36959e0cbe2efc3afe50fc81636caa96338137b611641565b6000600019611573610eaf565b14905090565b4390565b805160208083015160408085015181517e0100000000000000000000000000000000000000000000000000000000000061ffff9687168102828701529386168402602282015294169091026024840152805160068185030181526026909301908190528251600093928291908401908083835b6020831061160f5780518252601f1990920191602091820191016115f0565b5181516020939093036101000a6000190180199091169216919091179052604051920182900390912095945050505050565b5490565b61164d610eaf565b60408051808201909152601881527f494e49545f414c52454144595f494e495449414c495a45440000000000000000602082015290156116e9576040517f08c379a00000000000000000000000000000000000000000000000000000000081526004018080602001828103825283818151815260200191508051906020019080838360008381101561085457818101518382015260200161083c565b506117226116f5611579565b7febb05b386a8d34882b8711d156f463690983dc47815980fb82aeeff1aa43579e9063ffffffff61191616565b565b5490565b600080600160a060020a0383161515611744576000915061174f565b823b90506000811191505b50919050565b60408051600160a060020a0383166024808301919091528251808303909101815260449091019091526020810180517bffffffffffffffffffffffffffffffffffffffffffffffffffffffff167f70a082310000000000000000000000000000000000000000000000000000000017905260009081806117d5868461191a565b60408051808201909152601c81527f534146455f4552435f32305f42414c414e43455f52455645525445440000000060208201529193509150821515611877576040517f08c379a00000000000000000000000000000000000000000000000000000000081526004018080602001828103825283818151815260200191508051906020019080838360008381101561085457818101518382015260200161083c565b5095945050505050565b60408051600160a060020a038416602482015260448082018490528251808303909101815260649091019091526020810180517bffffffffffffffffffffffffffffffffffffffffffffffffffffffff167fa9059cbb00000000000000000000000000000000000000000000000000000000179052600090611903858261194b565b95945050505050565b8051602002815290565b9055565b6000806000806040516020818751602089018a5afa9250600083111561193f57805191505b50909590945092505050565b6000806040516020818551602087016000895af1600081111561198f573d801561197c57602081146119855761198d565b6001935061198d565b600183511493505b505b5090949350505050565b6060604051908101604052806003906020820280388339509192915050565b600183019183908215611a3e5791602002820160005b83821115611a0e57835183826101000a81548161ffff021916908361ffff16021790555092602001926002016020816001010492830192600103026119ce565b8015611a3c5782816101000a81549061ffff0219169055600201602081600101049283019260010302611a0e565b505b50610596929150611ac4565b828054600181600116156101000203166002900490600052602060002090601f016020900481019282601f10611a8b57805160ff1916838001178555611ab8565b82800160010185558215611ab8579182015b82811115611ab8578251825591602001919060010190611a9d565b50610596929150611ae3565b61072891905b8082111561059657805461ffff19168155600101611aca565b61072891905b808211156105965760008155600101611ae95600a165627a7a72305820768c624071298d24a5f35f4539bc1651dd54a120580f4274b688a794580c76e00029ebb05b386a8d34882b8711d156f463690983dc47815980fb82aeeff1aa43579e",
  "devdoc": {
    "methods": {
      "allowRecoverability(address)": {
        "details": "By default deriving from AragonApp makes it recoverable",
        "params": {
          "token": "Token address that would be recovered"
        },
        "return": "bool whether the app allows the recovery"
      },
      "canPerform(address,bytes32,uint256[])": {
        "details": "Check whether an action can be performed by a sender for a particular role on this app",
        "params": {
          "_params": "Permission params for the role",
          "_role": "Role on this app",
          "_sender": "Sender of the call"
        },
        "return": "Boolean indicating whether the sender has the permissions to perform the action.        Always returns false if the app hasn't been initialized yet."
      },
      "getInitializationBlock()": {
        "return": "Block number in which the contract was initialized"
      },
      "getRecoveryVault()": {
        "details": "Get the recovery vault for the app",
        "return": "Recovery vault address for the app"
      },
      "hasInitialized()": {
        "return": "Whether the contract has been initialized by the time of the current block"
      },
      "initialize()": {
        "details": "Initialize can only be called once. It saves the block number in which it was initialized."
      },
      "newVersion(uint16[3],address,bytes)": {
        "params": {
          "_contentURI": "External URI for fetching new version's content",
          "_contractAddress": "address for smart contract logic for version (if set to 0, it uses last versions' contractAddress)",
          "_newSemanticVersion": "Semantic version for new repo version"
        }
      },
      "transferToVault(address)": {
        "params": {
          "_token": "Token balance to be sent to recovery vault."
        }
      }
    }
  },
  "userdoc": {
    "methods": {
      "initialize()": {
        "notice": "Initialize this Repo"
      },
      "newVersion(uint16[3],address,bytes)": {
        "notice": "Create new version with contract `_contractAddress` and content `@fromHex(_contentURI)`"
      },
      "transferToVault(address)": {
        "notice": "Send funds to recovery Vault. This contract should never receive funds,        but in case it does, this function allows one to recover them."
      }
    }
  }
}